{
  "_format": "hh-sol-artifact-1",
  "contractName": "NFTMarketplace",
  "sourceName": "contracts/NFTMarketplace.sol",
  "abi": [
    {
      "inputs": [],
      "stateMutability": "nonpayable",
      "type": "constructor"
    },
    {
      "anonymous": false,
      "inputs": [
        {
          "indexed": true,
          "internalType": "address",
          "name": "owner",
          "type": "address"
        },
        {
          "indexed": true,
          "internalType": "address",
          "name": "approved",
          "type": "address"
        },
        {
          "indexed": true,
          "internalType": "uint256",
          "name": "tokenId",
          "type": "uint256"
        }
      ],
      "name": "Approval",
      "type": "event"
    },
    {
      "anonymous": false,
      "inputs": [
        {
          "indexed": true,
          "internalType": "address",
          "name": "owner",
          "type": "address"
        },
        {
          "indexed": true,
          "internalType": "address",
          "name": "operator",
          "type": "address"
        },
        {
          "indexed": false,
          "internalType": "bool",
          "name": "approved",
          "type": "bool"
        }
      ],
      "name": "ApprovalForAll",
      "type": "event"
    },
    {
      "anonymous": false,
      "inputs": [
        {
          "indexed": true,
          "internalType": "uint256",
          "name": "tokenId",
          "type": "uint256"
        },
        {
          "indexed": false,
          "internalType": "address",
          "name": "seller",
          "type": "address"
        },
        {
          "indexed": false,
          "internalType": "address",
          "name": "owner",
          "type": "address"
        },
        {
          "indexed": false,
          "internalType": "uint256",
          "name": "price",
          "type": "uint256"
        },
        {
          "indexed": false,
          "internalType": "bool",
          "name": "sold",
          "type": "bool"
        }
      ],
      "name": "MarketItemCreated",
      "type": "event"
    },
    {
      "anonymous": false,
      "inputs": [
        {
          "indexed": true,
          "internalType": "address",
          "name": "previousOwner",
          "type": "address"
        },
        {
          "indexed": true,
          "internalType": "address",
          "name": "newOwner",
          "type": "address"
        }
      ],
      "name": "OwnershipTransferred",
      "type": "event"
    },
    {
      "anonymous": false,
      "inputs": [
        {
          "indexed": false,
          "internalType": "address",
          "name": "account",
          "type": "address"
        }
      ],
      "name": "Paused",
      "type": "event"
    },
    {
      "anonymous": false,
      "inputs": [
        {
          "indexed": true,
          "internalType": "address",
          "name": "from",
          "type": "address"
        },
        {
          "indexed": true,
          "internalType": "address",
          "name": "to",
          "type": "address"
        },
        {
          "indexed": true,
          "internalType": "uint256",
          "name": "tokenId",
          "type": "uint256"
        }
      ],
      "name": "Transfer",
      "type": "event"
    },
    {
      "anonymous": false,
      "inputs": [
        {
          "indexed": false,
          "internalType": "address",
          "name": "account",
          "type": "address"
        }
      ],
      "name": "Unpaused",
      "type": "event"
    },
    {
      "inputs": [
        {
          "internalType": "address",
          "name": "to",
          "type": "address"
        },
        {
          "internalType": "uint256",
          "name": "tokenId",
          "type": "uint256"
        }
      ],
      "name": "approve",
      "outputs": [],
      "stateMutability": "nonpayable",
      "type": "function"
    },
    {
      "inputs": [
        {
          "internalType": "address",
          "name": "owner",
          "type": "address"
        }
      ],
      "name": "balanceOf",
      "outputs": [
        {
          "internalType": "uint256",
          "name": "",
          "type": "uint256"
        }
      ],
      "stateMutability": "view",
      "type": "function"
    },
    {
      "inputs": [
        {
          "internalType": "uint256",
          "name": "tokenId",
          "type": "uint256"
        }
      ],
      "name": "createMarketSale",
      "outputs": [],
      "stateMutability": "payable",
      "type": "function"
    },
    {
      "inputs": [
        {
          "internalType": "string",
          "name": "uri",
          "type": "string"
        },
        {
          "internalType": "uint256",
          "name": "price",
          "type": "uint256"
        }
      ],
      "name": "createToken",
      "outputs": [
        {
          "internalType": "uint256",
          "name": "",
          "type": "uint256"
        }
      ],
      "stateMutability": "payable",
      "type": "function"
    },
    {
      "inputs": [],
      "name": "fetchItemsListed",
      "outputs": [
        {
          "components": [
            {
              "internalType": "uint256",
              "name": "tokenId",
              "type": "uint256"
            },
            {
              "internalType": "address payable",
              "name": "seller",
              "type": "address"
            },
            {
              "internalType": "address payable",
              "name": "owner",
              "type": "address"
            },
            {
              "internalType": "uint256",
              "name": "price",
              "type": "uint256"
            },
            {
              "internalType": "bool",
              "name": "sold",
              "type": "bool"
            }
          ],
          "internalType": "struct NFTMarketplace.MarketItem[]",
          "name": "",
          "type": "tuple[]"
        }
      ],
      "stateMutability": "view",
      "type": "function"
    },
    {
      "inputs": [],
      "name": "fetchMarketItems",
      "outputs": [
        {
          "components": [
            {
              "internalType": "uint256",
              "name": "tokenId",
              "type": "uint256"
            },
            {
              "internalType": "address payable",
              "name": "seller",
              "type": "address"
            },
            {
              "internalType": "address payable",
              "name": "owner",
              "type": "address"
            },
            {
              "internalType": "uint256",
              "name": "price",
              "type": "uint256"
            },
            {
              "internalType": "bool",
              "name": "sold",
              "type": "bool"
            }
          ],
          "internalType": "struct NFTMarketplace.MarketItem[]",
          "name": "",
          "type": "tuple[]"
        }
      ],
      "stateMutability": "view",
      "type": "function"
    },
    {
      "inputs": [],
      "name": "fetchMyNFTs",
      "outputs": [
        {
          "components": [
            {
              "internalType": "uint256",
              "name": "tokenId",
              "type": "uint256"
            },
            {
              "internalType": "address payable",
              "name": "seller",
              "type": "address"
            },
            {
              "internalType": "address payable",
              "name": "owner",
              "type": "address"
            },
            {
              "internalType": "uint256",
              "name": "price",
              "type": "uint256"
            },
            {
              "internalType": "bool",
              "name": "sold",
              "type": "bool"
            }
          ],
          "internalType": "struct NFTMarketplace.MarketItem[]",
          "name": "",
          "type": "tuple[]"
        }
      ],
      "stateMutability": "view",
      "type": "function"
    },
    {
      "inputs": [
        {
          "internalType": "uint256",
          "name": "tokenId",
          "type": "uint256"
        }
      ],
      "name": "getApproved",
      "outputs": [
        {
          "internalType": "address",
          "name": "",
          "type": "address"
        }
      ],
      "stateMutability": "view",
      "type": "function"
    },
    {
      "inputs": [
        {
          "internalType": "address",
          "name": "owner",
          "type": "address"
        },
        {
          "internalType": "address",
          "name": "operator",
          "type": "address"
        }
      ],
      "name": "isApprovedForAll",
      "outputs": [
        {
          "internalType": "bool",
          "name": "",
          "type": "bool"
        }
      ],
      "stateMutability": "view",
      "type": "function"
    },
    {
      "inputs": [],
      "name": "listingPrice",
      "outputs": [
        {
          "internalType": "uint256",
          "name": "",
          "type": "uint256"
        }
      ],
      "stateMutability": "view",
      "type": "function"
    },
    {
      "inputs": [],
      "name": "name",
      "outputs": [
        {
          "internalType": "string",
          "name": "",
          "type": "string"
        }
      ],
      "stateMutability": "view",
      "type": "function"
    },
    {
      "inputs": [],
      "name": "owner",
      "outputs": [
        {
          "internalType": "address",
          "name": "",
          "type": "address"
        }
      ],
      "stateMutability": "view",
      "type": "function"
    },
    {
      "inputs": [
        {
          "internalType": "uint256",
          "name": "tokenId",
          "type": "uint256"
        }
      ],
      "name": "ownerOf",
      "outputs": [
        {
          "internalType": "address",
          "name": "",
          "type": "address"
        }
      ],
      "stateMutability": "view",
      "type": "function"
    },
    {
      "inputs": [],
      "name": "pause",
      "outputs": [],
      "stateMutability": "nonpayable",
      "type": "function"
    },
    {
      "inputs": [],
      "name": "paused",
      "outputs": [
        {
          "internalType": "bool",
          "name": "",
          "type": "bool"
        }
      ],
      "stateMutability": "view",
      "type": "function"
    },
    {
      "inputs": [],
      "name": "renounceOwnership",
      "outputs": [],
      "stateMutability": "nonpayable",
      "type": "function"
    },
    {
      "inputs": [
        {
          "internalType": "uint256",
          "name": "tokenId",
          "type": "uint256"
        },
        {
          "internalType": "uint256",
          "name": "price",
          "type": "uint256"
        }
      ],
      "name": "resellToken",
      "outputs": [],
      "stateMutability": "payable",
      "type": "function"
    },
    {
      "inputs": [
        {
          "internalType": "address",
          "name": "from",
          "type": "address"
        },
        {
          "internalType": "address",
          "name": "to",
          "type": "address"
        },
        {
          "internalType": "uint256",
          "name": "tokenId",
          "type": "uint256"
        }
      ],
      "name": "safeTransferFrom",
      "outputs": [],
      "stateMutability": "nonpayable",
      "type": "function"
    },
    {
      "inputs": [
        {
          "internalType": "address",
          "name": "from",
          "type": "address"
        },
        {
          "internalType": "address",
          "name": "to",
          "type": "address"
        },
        {
          "internalType": "uint256",
          "name": "tokenId",
          "type": "uint256"
        },
        {
          "internalType": "bytes",
          "name": "data",
          "type": "bytes"
        }
      ],
      "name": "safeTransferFrom",
      "outputs": [],
      "stateMutability": "nonpayable",
      "type": "function"
    },
    {
      "inputs": [
        {
          "internalType": "address",
          "name": "operator",
          "type": "address"
        },
        {
          "internalType": "bool",
          "name": "approved",
          "type": "bool"
        }
      ],
      "name": "setApprovalForAll",
      "outputs": [],
      "stateMutability": "nonpayable",
      "type": "function"
    },
    {
      "inputs": [
        {
          "internalType": "bytes4",
          "name": "interfaceId",
          "type": "bytes4"
        }
      ],
      "name": "supportsInterface",
      "outputs": [
        {
          "internalType": "bool",
          "name": "",
          "type": "bool"
        }
      ],
      "stateMutability": "view",
      "type": "function"
    },
    {
      "inputs": [],
      "name": "symbol",
      "outputs": [
        {
          "internalType": "string",
          "name": "",
          "type": "string"
        }
      ],
      "stateMutability": "view",
      "type": "function"
    },
    {
      "inputs": [
        {
          "internalType": "uint256",
          "name": "index",
          "type": "uint256"
        }
      ],
      "name": "tokenByIndex",
      "outputs": [
        {
          "internalType": "uint256",
          "name": "",
          "type": "uint256"
        }
      ],
      "stateMutability": "view",
      "type": "function"
    },
    {
      "inputs": [
        {
          "internalType": "address",
          "name": "owner",
          "type": "address"
        },
        {
          "internalType": "uint256",
          "name": "index",
          "type": "uint256"
        }
      ],
      "name": "tokenOfOwnerByIndex",
      "outputs": [
        {
          "internalType": "uint256",
          "name": "",
          "type": "uint256"
        }
      ],
      "stateMutability": "view",
      "type": "function"
    },
    {
      "inputs": [
        {
          "internalType": "uint256",
          "name": "tokenId",
          "type": "uint256"
        }
      ],
      "name": "tokenURI",
      "outputs": [
        {
          "internalType": "string",
          "name": "",
          "type": "string"
        }
      ],
      "stateMutability": "view",
      "type": "function"
    },
    {
      "inputs": [],
      "name": "totalSupply",
      "outputs": [
        {
          "internalType": "uint256",
          "name": "",
          "type": "uint256"
        }
      ],
      "stateMutability": "view",
      "type": "function"
    },
    {
      "inputs": [
        {
          "internalType": "address",
          "name": "from",
          "type": "address"
        },
        {
          "internalType": "address",
          "name": "to",
          "type": "address"
        },
        {
          "internalType": "uint256",
          "name": "tokenId",
          "type": "uint256"
        }
      ],
      "name": "transferFrom",
      "outputs": [],
      "stateMutability": "nonpayable",
      "type": "function"
    },
    {
      "inputs": [
        {
          "internalType": "address",
          "name": "newOwner",
          "type": "address"
        }
      ],
      "name": "transferOwnership",
      "outputs": [],
      "stateMutability": "nonpayable",
      "type": "function"
    },
    {
      "inputs": [],
      "name": "unpause",
      "outputs": [],
      "stateMutability": "nonpayable",
      "type": "function"
    },
    {
      "inputs": [
        {
          "internalType": "uint256",
          "name": "_listingPrice",
          "type": "uint256"
        }
      ],
      "name": "updateListingPrice",
      "outputs": [],
      "stateMutability": "payable",
      "type": "function"
    }
  ],
  "bytecode": "0x60806040526658d15e17628000600e553480156200001c57600080fd5b506040518060400160405280600d81526020017f43727970746f4b6574204e4654000000000000000000000000000000000000008152506040518060400160405280600581526020017f434b4e46540000000000000000000000000000000000000000000000000000008152508160009080519060200190620000a1929190620001cc565b508060019080519060200190620000ba929190620001cc565b5050506000600b60006101000a81548160ff021916908315150217905550620000f8620000ec620000fe60201b60201c565b6200010660201b60201c565b620002e1565b600033905090565b6000600b60019054906101000a900473ffffffffffffffffffffffffffffffffffffffff16905081600b60016101000a81548173ffffffffffffffffffffffffffffffffffffffff021916908373ffffffffffffffffffffffffffffffffffffffff1602179055508173ffffffffffffffffffffffffffffffffffffffff168173ffffffffffffffffffffffffffffffffffffffff167f8be0079c531659141344cd1fd0a4f28419497f9722a3daafe3b4186f6b6457e060405160405180910390a35050565b828054620001da906200027c565b90600052602060002090601f016020900481019282620001fe57600085556200024a565b82601f106200021957805160ff19168380011785556200024a565b828001600101855582156200024a579182015b82811115620002495782518255916020019190600101906200022c565b5b5090506200025991906200025d565b5090565b5b80821115620002785760008160009055506001016200025e565b5090565b600060028204905060018216806200029557607f821691505b60208210811415620002ac57620002ab620002b2565b5b50919050565b7f4e487b7100000000000000000000000000000000000000000000000000000000600052602260045260246000fd5b6151f980620002f16000396000f3fe6080604052600436106101cd5760003560e01c806370a08231116100f7578063ae677aa311610095578063c87b56dd11610064578063c87b56dd1461063d578063e219fc751461067a578063e985e9c514610696578063f2fde38b146106d3576101cd565b8063ae677aa3146105b1578063b88d4fde146105cd578063be9af536146105f6578063c78f19f914610612576101cd565b80638456cb59116100d15780638456cb591461051b5780638da5cb5b1461053257806395d89b411461055d578063a22cb46514610588576101cd565b806370a0823114610497578063715018a6146104d457806372b3b620146104eb576101cd565b806323b872dd1161016f57806345f8fa801161013e57806345f8fa80146103c75780634f6ccce7146103f25780635c975abb1461042f5780636352211e1461045a576101cd565b806323b872dd146103215780632f745c591461034a5780633f4ba83a1461038757806342842e0e1461039e576101cd565b8063095ea7b3116101ab578063095ea7b3146102775780630f08efe0146102a057806318160ddd146102cb578063202e3740146102f6576101cd565b806301ffc9a7146101d257806306fdde031461020f578063081812fc1461023a575b600080fd5b3480156101de57600080fd5b506101f960048036038101906101f49190613d3e565b6106fc565b604051610206919061445e565b60405180910390f35b34801561021b57600080fd5b5061022461070e565b6040516102319190614479565b60405180910390f35b34801561024657600080fd5b50610261600480360381019061025c9190613de4565b6107a0565b60405161026e9190614390565b60405180910390f35b34801561028357600080fd5b5061029e60048036038101906102999190613d02565b6107e6565b005b3480156102ac57600080fd5b506102b56108fe565b6040516102c2919061443c565b60405180910390f35b3480156102d757600080fd5b506102e0610b8c565b6040516102ed919061479b565b60405180910390f35b34801561030257600080fd5b5061030b610b99565b604051610318919061443c565b60405180910390f35b34801561032d57600080fd5b5061034860048036038101906103439190613bfc565b610ea9565b005b34801561035657600080fd5b50610371600480360381019061036c9190613d02565b610f09565b60405161037e919061479b565b60405180910390f35b34801561039357600080fd5b5061039c610fae565b005b3480156103aa57600080fd5b506103c560048036038101906103c09190613bfc565b610fc0565b005b3480156103d357600080fd5b506103dc610fe0565b6040516103e9919061443c565b60405180910390f35b3480156103fe57600080fd5b5061041960048036038101906104149190613de4565b6112f0565b604051610426919061479b565b60405180910390f35b34801561043b57600080fd5b50610444611387565b604051610451919061445e565b60405180910390f35b34801561046657600080fd5b50610481600480360381019061047c9190613de4565b61139e565b60405161048e9190614390565b60405180910390f35b3480156104a357600080fd5b506104be60048036038101906104b99190613b97565b611425565b6040516104cb919061479b565b60405180910390f35b3480156104e057600080fd5b506104e96114dd565b005b61050560048036038101906105009190613d90565b6114f1565b604051610512919061479b565b60405180910390f35b34801561052757600080fd5b50610530611532565b005b34801561053e57600080fd5b50610547611544565b6040516105549190614390565b60405180910390f35b34801561056957600080fd5b5061057261156e565b60405161057f9190614479565b60405180910390f35b34801561059457600080fd5b506105af60048036038101906105aa9190613cc6565b611600565b005b6105cb60048036038101906105c69190613de4565b611616565b005b3480156105d957600080fd5b506105f460048036038101906105ef9190613c4b565b611628565b005b610610600480360381019061060b9190613de4565b61168a565b005b34801561061e57600080fd5b506106276118a1565b604051610634919061479b565b60405180910390f35b34801561064957600080fd5b50610664600480360381019061065f9190613de4565b6118a7565b6040516106719190614479565b60405180910390f35b610694600480360381019061068f9190613e0d565b6118b9565b005b3480156106a257600080fd5b506106bd60048036038101906106b89190613bc0565b611aae565b6040516106ca919061445e565b60405180910390f35b3480156106df57600080fd5b506106fa60048036038101906106f59190613b97565b611b42565b005b600061070782611bc6565b9050919050565b60606000805461071d90614a0b565b80601f016020809104026020016040519081016040528092919081815260200182805461074990614a0b565b80156107965780601f1061076b57610100808354040283529160200191610796565b820191906000526020600020905b81548152906001019060200180831161077957829003601f168201915b5050505050905090565b60006107ab82611c40565b6004600083815260200190815260200160002060009054906101000a900473ffffffffffffffffffffffffffffffffffffffff169050919050565b60006107f18261139e565b90508073ffffffffffffffffffffffffffffffffffffffff168373ffffffffffffffffffffffffffffffffffffffff161415610862576040517f08c379a0000000000000000000000000000000000000000000000000000000008152600401610859906146fb565b60405180910390fd5b8073ffffffffffffffffffffffffffffffffffffffff16610881611c8b565b73ffffffffffffffffffffffffffffffffffffffff1614806108b057506108af816108aa611c8b565b611aae565b5b6108ef576040517f08c379a00000000000000000000000000000000000000000000000000000000081526004016108e69061473b565b60405180910390fd5b6108f98383611c93565b505050565b6060600061090c600c611d4c565b9050600061091a600d611d4c565b82610925919061490f565b90506000808267ffffffffffffffff81111561096a577f4e487b7100000000000000000000000000000000000000000000000000000000600052604160045260246000fd5b6040519080825280602002602001820160405280156109a357816020015b61099061395e565b8152602001906001900390816109885790505b50905060005b84811015610b81573073ffffffffffffffffffffffffffffffffffffffff16600f600083815260200190815260200160002060020160009054906101000a900473ffffffffffffffffffffffffffffffffffffffff1673ffffffffffffffffffffffffffffffffffffffff161415610b6e576000600f60008381526020019081526020016000209050806040518060a0016040529081600082015481526020016001820160009054906101000a900473ffffffffffffffffffffffffffffffffffffffff1673ffffffffffffffffffffffffffffffffffffffff1673ffffffffffffffffffffffffffffffffffffffff1681526020016002820160009054906101000a900473ffffffffffffffffffffffffffffffffffffffff1673ffffffffffffffffffffffffffffffffffffffff1673ffffffffffffffffffffffffffffffffffffffff168152602001600382015481526020016004820160009054906101000a900460ff161515151581525050838581518110610b52577f4e487b7100000000000000000000000000000000000000000000000000000000600052603260045260246000fd5b6020026020010181905250600184610b6a91906148b9565b9350505b8080610b7990614a6e565b9150506109a9565b508094505050505090565b6000600880549050905090565b60606000610ba7600c611d4c565b905060008060005b83811015610c44573373ffffffffffffffffffffffffffffffffffffffff16600f600083815260200190815260200160002060020160009054906101000a900473ffffffffffffffffffffffffffffffffffffffff1673ffffffffffffffffffffffffffffffffffffffff161415610c3157600183610c2e91906148b9565b92505b8080610c3c90614a6e565b915050610baf565b5060008267ffffffffffffffff811115610c87577f4e487b7100000000000000000000000000000000000000000000000000000000600052604160045260246000fd5b604051908082528060200260200182016040528015610cc057816020015b610cad61395e565b815260200190600190039081610ca55790505b50905060005b84811015610e9e573373ffffffffffffffffffffffffffffffffffffffff16600f600083815260200190815260200160002060020160009054906101000a900473ffffffffffffffffffffffffffffffffffffffff1673ffffffffffffffffffffffffffffffffffffffff161415610e8b576000600f60008381526020019081526020016000209050806040518060a0016040529081600082015481526020016001820160009054906101000a900473ffffffffffffffffffffffffffffffffffffffff1673ffffffffffffffffffffffffffffffffffffffff1673ffffffffffffffffffffffffffffffffffffffff1681526020016002820160009054906101000a900473ffffffffffffffffffffffffffffffffffffffff1673ffffffffffffffffffffffffffffffffffffffff1673ffffffffffffffffffffffffffffffffffffffff168152602001600382015481526020016004820160009054906101000a900460ff161515151581525050838581518110610e6f577f4e487b7100000000000000000000000000000000000000000000000000000000600052603260045260246000fd5b6020026020010181905250600184610e8791906148b9565b9350505b8080610e9690614a6e565b915050610cc6565b508094505050505090565b610eba610eb4611c8b565b82611d5a565b610ef9576040517f08c379a0000000000000000000000000000000000000000000000000000000008152600401610ef0906144bb565b60405180910390fd5b610f04838383611def565b505050565b6000610f1483611425565b8210610f55576040517f08c379a0000000000000000000000000000000000000000000000000000000008152600401610f4c906144fb565b60405180910390fd5b600660008473ffffffffffffffffffffffffffffffffffffffff1673ffffffffffffffffffffffffffffffffffffffff168152602001908152602001600020600083815260200190815260200160002054905092915050565b610fb66120e9565b610fbe612167565b565b610fdb83838360405180602001604052806000815250611628565b505050565b60606000610fee600c611d4c565b905060008060005b8381101561108b573373ffffffffffffffffffffffffffffffffffffffff16600f600083815260200190815260200160002060010160009054906101000a900473ffffffffffffffffffffffffffffffffffffffff1673ffffffffffffffffffffffffffffffffffffffff1614156110785760018361107591906148b9565b92505b808061108390614a6e565b915050610ff6565b5060008267ffffffffffffffff8111156110ce577f4e487b7100000000000000000000000000000000000000000000000000000000600052604160045260246000fd5b60405190808252806020026020018201604052801561110757816020015b6110f461395e565b8152602001906001900390816110ec5790505b50905060005b848110156112e5573373ffffffffffffffffffffffffffffffffffffffff16600f600083815260200190815260200160002060010160009054906101000a900473ffffffffffffffffffffffffffffffffffffffff1673ffffffffffffffffffffffffffffffffffffffff1614156112d2576000600f60008381526020019081526020016000209050806040518060a0016040529081600082015481526020016001820160009054906101000a900473ffffffffffffffffffffffffffffffffffffffff1673ffffffffffffffffffffffffffffffffffffffff1673ffffffffffffffffffffffffffffffffffffffff1681526020016002820160009054906101000a900473ffffffffffffffffffffffffffffffffffffffff1673ffffffffffffffffffffffffffffffffffffffff1673ffffffffffffffffffffffffffffffffffffffff168152602001600382015481526020016004820160009054906101000a900460ff1615151515815250508385815181106112b6577f4e487b7100000000000000000000000000000000000000000000000000000000600052603260045260246000fd5b60200260200101819052506001846112ce91906148b9565b9350505b80806112dd90614a6e565b91505061110d565b508094505050505090565b60006112fa610b8c565b821061133b576040517f08c379a00000000000000000000000000000000000000000000000000000000081526004016113329061475b565b60405180910390fd5b60088281548110611375577f4e487b7100000000000000000000000000000000000000000000000000000000600052603260045260246000fd5b90600052602060002001549050919050565b6000600b60009054906101000a900460ff16905090565b6000806113aa836121ca565b9050600073ffffffffffffffffffffffffffffffffffffffff168173ffffffffffffffffffffffffffffffffffffffff16141561141c576040517f08c379a0000000000000000000000000000000000000000000000000000000008152600401611413906146db565b60405180910390fd5b80915050919050565b60008073ffffffffffffffffffffffffffffffffffffffff168273ffffffffffffffffffffffffffffffffffffffff161415611496576040517f08c379a000000000000000000000000000000000000000000000000000000000815260040161148d9061461b565b60405180910390fd5b600360008373ffffffffffffffffffffffffffffffffffffffff1673ffffffffffffffffffffffffffffffffffffffff168152602001908152602001600020549050919050565b6114e56120e9565b6114ef6000612207565b565b6000806114fe600c611d4c565b905061150a600c6122cd565b61151433826122e3565b61151e8185612301565b6115288184612375565b8091505092915050565b61153a6120e9565b611542612578565b565b6000600b60019054906101000a900473ffffffffffffffffffffffffffffffffffffffff16905090565b60606001805461157d90614a0b565b80601f01602080910402602001604051908101604052809291908181526020018280546115a990614a0b565b80156115f65780601f106115cb576101008083540402835291602001916115f6565b820191906000526020600020905b8154815290600101906020018083116115d957829003601f168201915b5050505050905090565b61161261160b611c8b565b83836125db565b5050565b61161e6120e9565b80600e8190555050565b611639611633611c8b565b83611d5a565b611678576040517f08c379a000000000000000000000000000000000000000000000000000000000815260040161166f906144bb565b60405180910390fd5b61168484848484612748565b50505050565b600f60008281526020019081526020016000206003015434146116e2576040517f08c379a00000000000000000000000000000000000000000000000000000000081526004016116d99061465b565b60405180910390fd5b6116ed303383611def565b6116f5611544565b73ffffffffffffffffffffffffffffffffffffffff166108fc600e549081150290604051600060405180830381858888f1935050505015801561173c573d6000803e3d6000fd5b50600f600082815260200190815260200160002060010160009054906101000a900473ffffffffffffffffffffffffffffffffffffffff1673ffffffffffffffffffffffffffffffffffffffff166108fc349081150290604051600060405180830381858888f193505050501580156117b9573d6000803e3d6000fd5b5033600f600083815260200190815260200160002060020160006101000a81548173ffffffffffffffffffffffffffffffffffffffff021916908373ffffffffffffffffffffffffffffffffffffffff1602179055506001600f600083815260200190815260200160002060040160006101000a81548160ff0219169083151502179055506000600f600083815260200190815260200160002060010160006101000a81548173ffffffffffffffffffffffffffffffffffffffff021916908373ffffffffffffffffffffffffffffffffffffffff16021790555061189e600d6122cd565b50565b600e5481565b60606118b2826127a4565b9050919050565b3373ffffffffffffffffffffffffffffffffffffffff16600f600084815260200190815260200160002060020160009054906101000a900473ffffffffffffffffffffffffffffffffffffffff1673ffffffffffffffffffffffffffffffffffffffff161461195d576040517f08c379a0000000000000000000000000000000000000000000000000000000008152600401611954906144db565b60405180910390fd5b600e5434146119a1576040517f08c379a00000000000000000000000000000000000000000000000000000000081526004016119989061471b565b60405180910390fd5b6119ac333084611def565b6000600f600084815260200190815260200160002060040160006101000a81548160ff02191690831515021790555080600f60008481526020019081526020016000206003018190555033600f600084815260200190815260200160002060010160006101000a81548173ffffffffffffffffffffffffffffffffffffffff021916908373ffffffffffffffffffffffffffffffffffffffff16021790555030600f600084815260200190815260200160002060020160006101000a81548173ffffffffffffffffffffffffffffffffffffffff021916908373ffffffffffffffffffffffffffffffffffffffff160217905550611aaa600d6128b7565b5050565b6000600560008473ffffffffffffffffffffffffffffffffffffffff1673ffffffffffffffffffffffffffffffffffffffff16815260200190815260200160002060008373ffffffffffffffffffffffffffffffffffffffff1673ffffffffffffffffffffffffffffffffffffffff16815260200190815260200160002060009054906101000a900460ff16905092915050565b611b4a6120e9565b600073ffffffffffffffffffffffffffffffffffffffff168173ffffffffffffffffffffffffffffffffffffffff161415611bba576040517f08c379a0000000000000000000000000000000000000000000000000000000008152600401611bb19061455b565b60405180910390fd5b611bc381612207565b50565b60007f780e9d63000000000000000000000000000000000000000000000000000000007bffffffffffffffffffffffffffffffffffffffffffffffffffffffff1916827bffffffffffffffffffffffffffffffffffffffffffffffffffffffff19161480611c395750611c3882612913565b5b9050919050565b611c49816129f5565b611c88576040517f08c379a0000000000000000000000000000000000000000000000000000000008152600401611c7f906146db565b60405180910390fd5b50565b600033905090565b816004600083815260200190815260200160002060006101000a81548173ffffffffffffffffffffffffffffffffffffffff021916908373ffffffffffffffffffffffffffffffffffffffff160217905550808273ffffffffffffffffffffffffffffffffffffffff16611d068361139e565b73ffffffffffffffffffffffffffffffffffffffff167f8c5be1e5ebec7d5bd14f71427d1e84f3dd0314c0f7b2291e5b200ac8c7c3b92560405160405180910390a45050565b600081600001549050919050565b600080611d668361139e565b90508073ffffffffffffffffffffffffffffffffffffffff168473ffffffffffffffffffffffffffffffffffffffff161480611da85750611da78185611aae565b5b80611de657508373ffffffffffffffffffffffffffffffffffffffff16611dce846107a0565b73ffffffffffffffffffffffffffffffffffffffff16145b91505092915050565b8273ffffffffffffffffffffffffffffffffffffffff16611e0f8261139e565b73ffffffffffffffffffffffffffffffffffffffff1614611e65576040517f08c379a0000000000000000000000000000000000000000000000000000000008152600401611e5c9061457b565b60405180910390fd5b600073ffffffffffffffffffffffffffffffffffffffff168273ffffffffffffffffffffffffffffffffffffffff161415611ed5576040517f08c379a0000000000000000000000000000000000000000000000000000000008152600401611ecc906145bb565b60405180910390fd5b611ee28383836001612a36565b8273ffffffffffffffffffffffffffffffffffffffff16611f028261139e565b73ffffffffffffffffffffffffffffffffffffffff1614611f58576040517f08c379a0000000000000000000000000000000000000000000000000000000008152600401611f4f9061457b565b60405180910390fd5b6004600082815260200190815260200160002060006101000a81549073ffffffffffffffffffffffffffffffffffffffff02191690556001600360008573ffffffffffffffffffffffffffffffffffffffff1673ffffffffffffffffffffffffffffffffffffffff168152602001908152602001600020600082825403925050819055506001600360008473ffffffffffffffffffffffffffffffffffffffff1673ffffffffffffffffffffffffffffffffffffffff16815260200190815260200160002060008282540192505081905550816002600083815260200190815260200160002060006101000a81548173ffffffffffffffffffffffffffffffffffffffff021916908373ffffffffffffffffffffffffffffffffffffffff160217905550808273ffffffffffffffffffffffffffffffffffffffff168473ffffffffffffffffffffffffffffffffffffffff167fddf252ad1be2c89b69c2b068fc378daa952ba7f163c4a11628f55a4df523b3ef60405160405180910390a46120e48383836001612a50565b505050565b6120f1611c8b565b73ffffffffffffffffffffffffffffffffffffffff1661210f611544565b73ffffffffffffffffffffffffffffffffffffffff1614612165576040517f08c379a000000000000000000000000000000000000000000000000000000000815260040161215c9061469b565b60405180910390fd5b565b61216f612a56565b6000600b60006101000a81548160ff0219169083151502179055507f5db9ee0a495bf2e6ff9c91a7834c1ba4fdd244a5e8aa4e537bd38aeae4b073aa6121b3611c8b565b6040516121c09190614390565b60405180910390a1565b60006002600083815260200190815260200160002060009054906101000a900473ffffffffffffffffffffffffffffffffffffffff169050919050565b6000600b60019054906101000a900473ffffffffffffffffffffffffffffffffffffffff16905081600b60016101000a81548173ffffffffffffffffffffffffffffffffffffffff021916908373ffffffffffffffffffffffffffffffffffffffff1602179055508173ffffffffffffffffffffffffffffffffffffffff168173ffffffffffffffffffffffffffffffffffffffff167f8be0079c531659141344cd1fd0a4f28419497f9722a3daafe3b4186f6b6457e060405160405180910390a35050565b6001816000016000828254019250508190555050565b6122fd828260405180602001604052806000815250612a9f565b5050565b61230a826129f5565b612349576040517f08c379a00000000000000000000000000000000000000000000000000000000081526004016123409061463b565b60405180910390fd5b80600a600084815260200190815260200160002090805190602001906123709291906139bb565b505050565b600081116123b8576040517f08c379a00000000000000000000000000000000000000000000000000000000081526004016123af906146bb565b60405180910390fd5b600e5434146123fc576040517f08c379a00000000000000000000000000000000000000000000000000000000081526004016123f39061471b565b60405180910390fd5b612407333084611def565b6040518060a001604052808381526020013373ffffffffffffffffffffffffffffffffffffffff1681526020013073ffffffffffffffffffffffffffffffffffffffff16815260200182815260200160001515815250600f60008481526020019081526020016000206000820151816000015560208201518160010160006101000a81548173ffffffffffffffffffffffffffffffffffffffff021916908373ffffffffffffffffffffffffffffffffffffffff16021790555060408201518160020160006101000a81548173ffffffffffffffffffffffffffffffffffffffff021916908373ffffffffffffffffffffffffffffffffffffffff1602179055506060820151816003015560808201518160040160006101000a81548160ff021916908315150217905550905050817fb640004f1d14576d0c209e240cad0410e0d8c0c33a09375861fbadae2588a98d333084600060405161256c94939291906143ab565b60405180910390a25050565b612580612afa565b6001600b60006101000a81548160ff0219169083151502179055507f62e78cea01bee320cd4e420270b5ea74000d11b0c9f74754ebdbfc544b05a2586125c4611c8b565b6040516125d19190614390565b60405180910390a1565b8173ffffffffffffffffffffffffffffffffffffffff168373ffffffffffffffffffffffffffffffffffffffff16141561264a576040517f08c379a0000000000000000000000000000000000000000000000000000000008152600401612641906145db565b60405180910390fd5b80600560008573ffffffffffffffffffffffffffffffffffffffff1673ffffffffffffffffffffffffffffffffffffffff16815260200190815260200160002060008473ffffffffffffffffffffffffffffffffffffffff1673ffffffffffffffffffffffffffffffffffffffff16815260200190815260200160002060006101000a81548160ff0219169083151502179055508173ffffffffffffffffffffffffffffffffffffffff168373ffffffffffffffffffffffffffffffffffffffff167f17307eab39ab6107e8899845ad3d59bd9653f200f220920489ca2b5937696c318360405161273b919061445e565b60405180910390a3505050565b612753848484611def565b61275f84848484612b44565b61279e576040517f08c379a00000000000000000000000000000000000000000000000000000000081526004016127959061453b565b60405180910390fd5b50505050565b60606127af82611c40565b6000600a600084815260200190815260200160002080546127cf90614a0b565b80601f01602080910402602001604051908101604052809291908181526020018280546127fb90614a0b565b80156128485780601f1061281d57610100808354040283529160200191612848565b820191906000526020600020905b81548152906001019060200180831161282b57829003601f168201915b505050505090506000612859612cdb565b905060008151141561286f5781925050506128b2565b6000825111156128a457808260405160200161288c92919061436c565b604051602081830303815290604052925050506128b2565b6128ad84612cf2565b925050505b919050565b60008160000154905060008111612903576040517f08c379a00000000000000000000000000000000000000000000000000000000081526004016128fa9061451b565b60405180910390fd5b6001810382600001819055505050565b60007f80ac58cd000000000000000000000000000000000000000000000000000000007bffffffffffffffffffffffffffffffffffffffffffffffffffffffff1916827bffffffffffffffffffffffffffffffffffffffffffffffffffffffff191614806129de57507f5b5e139f000000000000000000000000000000000000000000000000000000007bffffffffffffffffffffffffffffffffffffffffffffffffffffffff1916827bffffffffffffffffffffffffffffffffffffffffffffffffffffffff1916145b806129ee57506129ed82612d5a565b5b9050919050565b60008073ffffffffffffffffffffffffffffffffffffffff16612a17836121ca565b73ffffffffffffffffffffffffffffffffffffffff1614159050919050565b612a3e612afa565b612a4a84848484612dc4565b50505050565b50505050565b612a5e611387565b612a9d576040517f08c379a0000000000000000000000000000000000000000000000000000000008152600401612a949061449b565b60405180910390fd5b565b612aa98383612f24565b612ab66000848484612b44565b612af5576040517f08c379a0000000000000000000000000000000000000000000000000000000008152600401612aec9061453b565b60405180910390fd5b505050565b612b02611387565b15612b42576040517f08c379a0000000000000000000000000000000000000000000000000000000008152600401612b39906145fb565b60405180910390fd5b565b6000612b658473ffffffffffffffffffffffffffffffffffffffff16613142565b15612cce578373ffffffffffffffffffffffffffffffffffffffff1663150b7a02612b8e611c8b565b8786866040518563ffffffff1660e01b8152600401612bb094939291906143f0565b602060405180830381600087803b158015612bca57600080fd5b505af1925050508015612bfb57506040513d601f19601f82011682018060405250810190612bf89190613d67565b60015b612c7e573d8060008114612c2b576040519150601f19603f3d011682016040523d82523d6000602084013e612c30565b606091505b50600081511415612c76576040517f08c379a0000000000000000000000000000000000000000000000000000000008152600401612c6d9061453b565b60405180910390fd5b805181602001fd5b63150b7a0260e01b7bffffffffffffffffffffffffffffffffffffffffffffffffffffffff1916817bffffffffffffffffffffffffffffffffffffffffffffffffffffffff191614915050612cd3565b600190505b949350505050565b606060405180602001604052806000815250905090565b6060612cfd82611c40565b6000612d07612cdb565b90506000815111612d275760405180602001604052806000815250612d52565b80612d3184613165565b604051602001612d4292919061436c565b6040516020818303038152906040525b915050919050565b60007f01ffc9a7000000000000000000000000000000000000000000000000000000007bffffffffffffffffffffffffffffffffffffffffffffffffffffffff1916827bffffffffffffffffffffffffffffffffffffffffffffffffffffffff1916149050919050565b612dd084848484613289565b6001811115612e14576040517f08c379a0000000000000000000000000000000000000000000000000000000008152600401612e0b9061477b565b60405180910390fd5b6000829050600073ffffffffffffffffffffffffffffffffffffffff168573ffffffffffffffffffffffffffffffffffffffff161415612e5c57612e57816133af565b612e9b565b8373ffffffffffffffffffffffffffffffffffffffff168573ffffffffffffffffffffffffffffffffffffffff1614612e9a57612e9985826133f8565b5b5b600073ffffffffffffffffffffffffffffffffffffffff168473ffffffffffffffffffffffffffffffffffffffff161415612ede57612ed981613565565b612f1d565b8473ffffffffffffffffffffffffffffffffffffffff168473ffffffffffffffffffffffffffffffffffffffff1614612f1c57612f1b84826136a8565b5b5b5050505050565b600073ffffffffffffffffffffffffffffffffffffffff168273ffffffffffffffffffffffffffffffffffffffff161415612f94576040517f08c379a0000000000000000000000000000000000000000000000000000000008152600401612f8b9061467b565b60405180910390fd5b612f9d816129f5565b15612fdd576040517f08c379a0000000000000000000000000000000000000000000000000000000008152600401612fd49061459b565b60405180910390fd5b612feb600083836001612a36565b612ff4816129f5565b15613034576040517f08c379a000000000000000000000000000000000000000000000000000000000815260040161302b9061459b565b60405180910390fd5b6001600360008473ffffffffffffffffffffffffffffffffffffffff1673ffffffffffffffffffffffffffffffffffffffff16815260200190815260200160002060008282540192505081905550816002600083815260200190815260200160002060006101000a81548173ffffffffffffffffffffffffffffffffffffffff021916908373ffffffffffffffffffffffffffffffffffffffff160217905550808273ffffffffffffffffffffffffffffffffffffffff16600073ffffffffffffffffffffffffffffffffffffffff167fddf252ad1be2c89b69c2b068fc378daa952ba7f163c4a11628f55a4df523b3ef60405160405180910390a461313e600083836001612a50565b5050565b6000808273ffffffffffffffffffffffffffffffffffffffff163b119050919050565b60606000600161317484613727565b01905060008167ffffffffffffffff8111156131b9577f4e487b7100000000000000000000000000000000000000000000000000000000600052604160045260246000fd5b6040519080825280601f01601f1916602001820160405280156131eb5781602001600182028036833780820191505090505b509050600082602001820190505b60011561327e578080600190039150507f3031323334353637383961626364656600000000000000000000000000000000600a86061a8153600a8581613268577f4e487b7100000000000000000000000000000000000000000000000000000000600052601260045260246000fd5b04945060008514156132795761327e565b6131f9565b819350505050919050565b60018111156133a957600073ffffffffffffffffffffffffffffffffffffffff168473ffffffffffffffffffffffffffffffffffffffff161461331d5780600360008673ffffffffffffffffffffffffffffffffffffffff1673ffffffffffffffffffffffffffffffffffffffff1681526020019081526020016000206000828254613315919061490f565b925050819055505b600073ffffffffffffffffffffffffffffffffffffffff168373ffffffffffffffffffffffffffffffffffffffff16146133a85780600360008573ffffffffffffffffffffffffffffffffffffffff1673ffffffffffffffffffffffffffffffffffffffff16815260200190815260200160002060008282546133a091906148b9565b925050819055505b5b50505050565b6008805490506009600083815260200190815260200160002081905550600881908060018154018082558091505060019003906000526020600020016000909190919091505550565b6000600161340584611425565b61340f919061490f565b90506000600760008481526020019081526020016000205490508181146134f4576000600660008673ffffffffffffffffffffffffffffffffffffffff1673ffffffffffffffffffffffffffffffffffffffff168152602001908152602001600020600084815260200190815260200160002054905080600660008773ffffffffffffffffffffffffffffffffffffffff1673ffffffffffffffffffffffffffffffffffffffff168152602001908152602001600020600084815260200190815260200160002081905550816007600083815260200190815260200160002081905550505b6007600084815260200190815260200160002060009055600660008573ffffffffffffffffffffffffffffffffffffffff1673ffffffffffffffffffffffffffffffffffffffff16815260200190815260200160002060008381526020019081526020016000206000905550505050565b60006001600880549050613579919061490f565b90506000600960008481526020019081526020016000205490506000600883815481106135cf577f4e487b7100000000000000000000000000000000000000000000000000000000600052603260045260246000fd5b906000526020600020015490508060088381548110613617577f4e487b7100000000000000000000000000000000000000000000000000000000600052603260045260246000fd5b90600052602060002001819055508160096000838152602001908152602001600020819055506009600085815260200190815260200160002060009055600880548061368c577f4e487b7100000000000000000000000000000000000000000000000000000000600052603160045260246000fd5b6001900381819060005260206000200160009055905550505050565b60006136b383611425565b905081600660008573ffffffffffffffffffffffffffffffffffffffff1673ffffffffffffffffffffffffffffffffffffffff168152602001908152602001600020600083815260200190815260200160002081905550806007600084815260200190815260200160002081905550505050565b600080600090507a184f03e93ff9f4daa797ed6e38ed64bf6a1f01000000000000000083106137ab577a184f03e93ff9f4daa797ed6e38ed64bf6a1f01000000000000000083816137a1577f4e487b7100000000000000000000000000000000000000000000000000000000600052601260045260246000fd5b0492506040810190505b6d04ee2d6d415b85acef8100000000831061380e576d04ee2d6d415b85acef81000000008381613804577f4e487b7100000000000000000000000000000000000000000000000000000000600052601260045260246000fd5b0492506020810190505b662386f26fc10000831061386357662386f26fc100008381613859577f4e487b7100000000000000000000000000000000000000000000000000000000600052601260045260246000fd5b0492506010810190505b6305f5e10083106138b2576305f5e10083816138a8577f4e487b7100000000000000000000000000000000000000000000000000000000600052601260045260246000fd5b0492506008810190505b61271083106138fd5761271083816138f3577f4e487b7100000000000000000000000000000000000000000000000000000000600052601260045260246000fd5b0492506004810190505b60648310613946576064838161393c577f4e487b7100000000000000000000000000000000000000000000000000000000600052601260045260246000fd5b0492506002810190505b600a8310613955576001810190505b80915050919050565b6040518060a0016040528060008152602001600073ffffffffffffffffffffffffffffffffffffffff168152602001600073ffffffffffffffffffffffffffffffffffffffff168152602001600081526020016000151581525090565b8280546139c790614a0b565b90600052602060002090601f0160209004810192826139e95760008555613a30565b82601f10613a0257805160ff1916838001178555613a30565b82800160010185558215613a30579182015b82811115613a2f578251825591602001919060010190613a14565b5b509050613a3d9190613a41565b5090565b5b80821115613a5a576000816000905550600101613a42565b5090565b6000613a71613a6c846147db565b6147b6565b905082815260208101848484011115613a8957600080fd5b613a948482856149c9565b509392505050565b6000613aaf613aaa8461480c565b6147b6565b905082815260208101848484011115613ac757600080fd5b613ad28482856149c9565b509392505050565b600081359050613ae981615167565b92915050565b600081359050613afe8161517e565b92915050565b600081359050613b1381615195565b92915050565b600081519050613b2881615195565b92915050565b600082601f830112613b3f57600080fd5b8135613b4f848260208601613a5e565b91505092915050565b600082601f830112613b6957600080fd5b8135613b79848260208601613a9c565b91505092915050565b600081359050613b91816151ac565b92915050565b600060208284031215613ba957600080fd5b6000613bb784828501613ada565b91505092915050565b60008060408385031215613bd357600080fd5b6000613be185828601613ada565b9250506020613bf285828601613ada565b9150509250929050565b600080600060608486031215613c1157600080fd5b6000613c1f86828701613ada565b9350506020613c3086828701613ada565b9250506040613c4186828701613b82565b9150509250925092565b60008060008060808587031215613c6157600080fd5b6000613c6f87828801613ada565b9450506020613c8087828801613ada565b9350506040613c9187828801613b82565b925050606085013567ffffffffffffffff811115613cae57600080fd5b613cba87828801613b2e565b91505092959194509250565b60008060408385031215613cd957600080fd5b6000613ce785828601613ada565b9250506020613cf885828601613aef565b9150509250929050565b60008060408385031215613d1557600080fd5b6000613d2385828601613ada565b9250506020613d3485828601613b82565b9150509250929050565b600060208284031215613d5057600080fd5b6000613d5e84828501613b04565b91505092915050565b600060208284031215613d7957600080fd5b6000613d8784828501613b19565b91505092915050565b60008060408385031215613da357600080fd5b600083013567ffffffffffffffff811115613dbd57600080fd5b613dc985828601613b58565b9250506020613dda85828601613b82565b9150509250929050565b600060208284031215613df657600080fd5b6000613e0484828501613b82565b91505092915050565b60008060408385031215613e2057600080fd5b6000613e2e85828601613b82565b9250506020613e3f85828601613b82565b9150509250929050565b6000613e5583836142e6565b60a08301905092915050565b613e6a81614955565b82525050565b613e7981614943565b82525050565b6000613e8a8261484d565b613e94818561487b565b9350613e9f8361483d565b8060005b83811015613ed0578151613eb78882613e49565b9750613ec28361486e565b925050600181019050613ea3565b5085935050505092915050565b613ee681614967565b82525050565b613ef581614967565b82525050565b6000613f0682614858565b613f10818561488c565b9350613f208185602086016149d8565b613f2981614b44565b840191505092915050565b6000613f3f82614863565b613f49818561489d565b9350613f598185602086016149d8565b613f6281614b44565b840191505092915050565b6000613f7882614863565b613f8281856148ae565b9350613f928185602086016149d8565b80840191505092915050565b6000613fab60148361489d565b9150613fb682614b55565b602082019050919050565b6000613fce602d8361489d565b9150613fd982614b7e565b604082019050919050565b6000613ff160298361489d565b9150613ffc82614bcd565b604082019050919050565b6000614014602b8361489d565b915061401f82614c1c565b604082019050919050565b6000614037601b8361489d565b915061404282614c6b565b602082019050919050565b600061405a60328361489d565b915061406582614c94565b604082019050919050565b600061407d60268361489d565b915061408882614ce3565b604082019050919050565b60006140a060258361489d565b91506140ab82614d32565b604082019050919050565b60006140c3601c8361489d565b91506140ce82614d81565b602082019050919050565b60006140e660248361489d565b91506140f182614daa565b604082019050919050565b600061410960198361489d565b915061411482614df9565b602082019050919050565b600061412c60108361489d565b915061413782614e22565b602082019050919050565b600061414f60298361489d565b915061415a82614e4b565b604082019050919050565b6000614172602e8361489d565b915061417d82614e9a565b604082019050919050565b600061419560408361489d565b91506141a082614ee9565b604082019050919050565b60006141b860208361489d565b91506141c382614f38565b602082019050919050565b60006141db60208361489d565b91506141e682614f61565b602082019050919050565b60006141fe60188361489d565b915061420982614f8a565b602082019050919050565b600061422160188361489d565b915061422c82614fb3565b602082019050919050565b600061424460218361489d565b915061424f82614fdc565b604082019050919050565b600061426760248361489d565b91506142728261502b565b604082019050919050565b600061428a603d8361489d565b91506142958261507a565b604082019050919050565b60006142ad602c8361489d565b91506142b8826150c9565b604082019050919050565b60006142d060358361489d565b91506142db82615118565b604082019050919050565b60a0820160008201516142fc600085018261434e565b50602082015161430f6020850182613e61565b5060408201516143226040850182613e61565b506060820151614335606085018261434e565b5060808201516143486080850182613edd565b50505050565b614357816149bf565b82525050565b614366816149bf565b82525050565b60006143788285613f6d565b91506143848284613f6d565b91508190509392505050565b60006020820190506143a56000830184613e70565b92915050565b60006080820190506143c06000830187613e70565b6143cd6020830186613e70565b6143da604083018561435d565b6143e76060830184613eec565b95945050505050565b60006080820190506144056000830187613e70565b6144126020830186613e70565b61441f604083018561435d565b81810360608301526144318184613efb565b905095945050505050565b600060208201905081810360008301526144568184613e7f565b905092915050565b60006020820190506144736000830184613eec565b92915050565b600060208201905081810360008301526144938184613f34565b905092915050565b600060208201905081810360008301526144b481613f9e565b9050919050565b600060208201905081810360008301526144d481613fc1565b9050919050565b600060208201905081810360008301526144f481613fe4565b9050919050565b6000602082019050818103600083015261451481614007565b9050919050565b600060208201905081810360008301526145348161402a565b9050919050565b600060208201905081810360008301526145548161404d565b9050919050565b6000602082019050818103600083015261457481614070565b9050919050565b6000602082019050818103600083015261459481614093565b9050919050565b600060208201905081810360008301526145b4816140b6565b9050919050565b600060208201905081810360008301526145d4816140d9565b9050919050565b600060208201905081810360008301526145f4816140fc565b9050919050565b600060208201905081810360008301526146148161411f565b9050919050565b6000602082019050818103600083015261463481614142565b9050919050565b6000602082019050818103600083015261465481614165565b9050919050565b6000602082019050818103600083015261467481614188565b9050919050565b60006020820190508181036000830152614694816141ab565b9050919050565b600060208201905081810360008301526146b4816141ce565b9050919050565b600060208201905081810360008301526146d4816141f1565b9050919050565b600060208201905081810360008301526146f481614214565b9050919050565b6000602082019050818103600083015261471481614237565b9050919050565b600060208201905081810360008301526147348161425a565b9050919050565b600060208201905081810360008301526147548161427d565b9050919050565b60006020820190508181036000830152614774816142a0565b9050919050565b60006020820190508181036000830152614794816142c3565b9050919050565b60006020820190506147b0600083018461435d565b92915050565b60006147c06147d1565b90506147cc8282614a3d565b919050565b6000604051905090565b600067ffffffffffffffff8211156147f6576147f5614b15565b5b6147ff82614b44565b9050602081019050919050565b600067ffffffffffffffff82111561482757614826614b15565b5b61483082614b44565b9050602081019050919050565b6000819050602082019050919050565b600081519050919050565b600081519050919050565b600081519050919050565b6000602082019050919050565b600082825260208201905092915050565b600082825260208201905092915050565b600082825260208201905092915050565b600081905092915050565b60006148c4826149bf565b91506148cf836149bf565b9250827fffffffffffffffffffffffffffffffffffffffffffffffffffffffffffffffff0382111561490457614903614ab7565b5b828201905092915050565b600061491a826149bf565b9150614925836149bf565b92508282101561493857614937614ab7565b5b828203905092915050565b600061494e8261499f565b9050919050565b60006149608261499f565b9050919050565b60008115159050919050565b60007fffffffff0000000000000000000000000000000000000000000000000000000082169050919050565b600073ffffffffffffffffffffffffffffffffffffffff82169050919050565b6000819050919050565b82818337600083830152505050565b60005b838110156149f65780820151818401526020810190506149db565b83811115614a05576000848401525b50505050565b60006002820490506001821680614a2357607f821691505b60208210811415614a3757614a36614ae6565b5b50919050565b614a4682614b44565b810181811067ffffffffffffffff82111715614a6557614a64614b15565b5b80604052505050565b6000614a79826149bf565b91507fffffffffffffffffffffffffffffffffffffffffffffffffffffffffffffffff821415614aac57614aab614ab7565b5b600182019050919050565b7f4e487b7100000000000000000000000000000000000000000000000000000000600052601160045260246000fd5b7f4e487b7100000000000000000000000000000000000000000000000000000000600052602260045260246000fd5b7f4e487b7100000000000000000000000000000000000000000000000000000000600052604160045260246000fd5b6000601f19601f8301169050919050565b7f5061757361626c653a206e6f7420706175736564000000000000000000000000600082015250565b7f4552433732313a2063616c6c6572206973206e6f7420746f6b656e206f776e6560008201527f72206f7220617070726f76656400000000000000000000000000000000000000602082015250565b7f4f6e6c79206974656d206f776e65722063616e20706572666f726d207468697360008201527f207065726174696f6e0000000000000000000000000000000000000000000000602082015250565b7f455243373231456e756d657261626c653a206f776e657220696e646578206f7560008201527f74206f6620626f756e6473000000000000000000000000000000000000000000602082015250565b7f436f756e7465723a2064656372656d656e74206f766572666c6f770000000000600082015250565b7f4552433732313a207472616e7366657220746f206e6f6e20455243373231526560008201527f63656976657220696d706c656d656e7465720000000000000000000000000000602082015250565b7f4f776e61626c653a206e6577206f776e657220697320746865207a65726f206160008201527f6464726573730000000000000000000000000000000000000000000000000000602082015250565b7f4552433732313a207472616e736665722066726f6d20696e636f72726563742060008201527f6f776e6572000000000000000000000000000000000000000000000000000000602082015250565b7f4552433732313a20746f6b656e20616c7265616479206d696e74656400000000600082015250565b7f4552433732313a207472616e7366657220746f20746865207a65726f2061646460008201527f7265737300000000000000000000000000000000000000000000000000000000602082015250565b7f4552433732313a20617070726f766520746f2063616c6c657200000000000000600082015250565b7f5061757361626c653a2070617573656400000000000000000000000000000000600082015250565b7f4552433732313a2061646472657373207a65726f206973206e6f74206120766160008201527f6c6964206f776e65720000000000000000000000000000000000000000000000602082015250565b7f45524337323155524953746f726167653a2055524920736574206f66206e6f6e60008201527f6578697374656e7420746f6b656e000000000000000000000000000000000000602082015250565b7f506c65617365207375626d6974207468652061736b696e67207072696365206960008201527f6e206f7264657220746f20636f6d706c65746520746865207075726368617365602082015250565b7f4552433732313a206d696e7420746f20746865207a65726f2061646472657373600082015250565b7f4f776e61626c653a2063616c6c6572206973206e6f7420746865206f776e6572600082015250565b7f5072696365206d757374206265206174206c6561737420310000000000000000600082015250565b7f4552433732313a20696e76616c696420746f6b656e2049440000000000000000600082015250565b7f4552433732313a20617070726f76616c20746f2063757272656e74206f776e6560008201527f7200000000000000000000000000000000000000000000000000000000000000602082015250565b7f5072696365206d75737420626520657175616c20746f206c697374696e67207060008201527f7269636500000000000000000000000000000000000000000000000000000000602082015250565b7f4552433732313a20617070726f76652063616c6c6572206973206e6f7420746f60008201527f6b656e206f776e6572206f7220617070726f76656420666f7220616c6c000000602082015250565b7f455243373231456e756d657261626c653a20676c6f62616c20696e646578206f60008201527f7574206f6620626f756e64730000000000000000000000000000000000000000602082015250565b7f455243373231456e756d657261626c653a20636f6e736563757469766520747260008201527f616e7366657273206e6f7420737570706f727465640000000000000000000000602082015250565b61517081614943565b811461517b57600080fd5b50565b61518781614967565b811461519257600080fd5b50565b61519e81614973565b81146151a957600080fd5b50565b6151b5816149bf565b81146151c057600080fd5b5056fea2646970667358221220f1aae0aba1ab1984b7b9de9cab8816a115d6fdf5d4c357788ca8029e176077e464736f6c63430008040033",
  "linkReferences": {},
  "deployedLinkReferences": {}
}