{
  "_format": "hh-sol-artifact-1",
  "contractName": "NFTMarketplace",
  "sourceName": "contracts/NFTMarketplace.sol",
  "abi": [
    {
      "inputs": [],
      "stateMutability": "nonpayable",
      "type": "constructor"
    },
    {
      "anonymous": false,
      "inputs": [
        {
          "indexed": true,
          "internalType": "address",
          "name": "owner",
          "type": "address"
        },
        {
          "indexed": true,
          "internalType": "address",
          "name": "approved",
          "type": "address"
        },
        {
          "indexed": true,
          "internalType": "uint256",
          "name": "tokenId",
          "type": "uint256"
        }
      ],
      "name": "Approval",
      "type": "event"
    },
    {
      "anonymous": false,
      "inputs": [
        {
          "indexed": true,
          "internalType": "address",
          "name": "owner",
          "type": "address"
        },
        {
          "indexed": true,
          "internalType": "address",
          "name": "operator",
          "type": "address"
        },
        {
          "indexed": false,
          "internalType": "bool",
          "name": "approved",
          "type": "bool"
        }
      ],
      "name": "ApprovalForAll",
      "type": "event"
    },
    {
      "anonymous": false,
      "inputs": [
        {
          "indexed": true,
          "internalType": "uint256",
          "name": "tokenId",
          "type": "uint256"
        },
        {
          "indexed": false,
          "internalType": "address",
          "name": "seller",
          "type": "address"
        },
        {
          "indexed": false,
          "internalType": "address",
          "name": "owner",
          "type": "address"
        },
        {
          "indexed": false,
          "internalType": "uint256",
          "name": "price",
          "type": "uint256"
        },
        {
          "indexed": false,
          "internalType": "bool",
          "name": "sold",
          "type": "bool"
        }
      ],
      "name": "MarketItemCreated",
      "type": "event"
    },
    {
      "anonymous": false,
      "inputs": [
        {
          "indexed": true,
          "internalType": "address",
          "name": "previousOwner",
          "type": "address"
        },
        {
          "indexed": true,
          "internalType": "address",
          "name": "newOwner",
          "type": "address"
        }
      ],
      "name": "OwnershipTransferred",
      "type": "event"
    },
    {
      "anonymous": false,
      "inputs": [
        {
          "indexed": false,
          "internalType": "address",
          "name": "account",
          "type": "address"
        }
      ],
      "name": "Paused",
      "type": "event"
    },
    {
      "anonymous": false,
      "inputs": [
        {
          "indexed": true,
          "internalType": "address",
          "name": "from",
          "type": "address"
        },
        {
          "indexed": true,
          "internalType": "address",
          "name": "to",
          "type": "address"
        },
        {
          "indexed": true,
          "internalType": "uint256",
          "name": "tokenId",
          "type": "uint256"
        }
      ],
      "name": "Transfer",
      "type": "event"
    },
    {
      "anonymous": false,
      "inputs": [
        {
          "indexed": false,
          "internalType": "address",
          "name": "account",
          "type": "address"
        }
      ],
      "name": "Unpaused",
      "type": "event"
    },
    {
      "inputs": [
        {
          "internalType": "address",
          "name": "to",
          "type": "address"
        },
        {
          "internalType": "uint256",
          "name": "tokenId",
          "type": "uint256"
        }
      ],
      "name": "approve",
      "outputs": [],
      "stateMutability": "nonpayable",
      "type": "function"
    },
    {
      "inputs": [
        {
          "internalType": "address",
          "name": "owner",
          "type": "address"
        }
      ],
      "name": "balanceOf",
      "outputs": [
        {
          "internalType": "uint256",
          "name": "",
          "type": "uint256"
        }
      ],
      "stateMutability": "view",
      "type": "function"
    },
    {
      "inputs": [
        {
          "internalType": "uint256",
          "name": "tokenId",
          "type": "uint256"
        }
      ],
      "name": "createMarketSale",
      "outputs": [],
      "stateMutability": "payable",
      "type": "function"
    },
    {
      "inputs": [
        {
          "internalType": "string",
          "name": "uri",
          "type": "string"
        },
        {
          "internalType": "uint256",
          "name": "price",
          "type": "uint256"
        }
      ],
      "name": "createToken",
      "outputs": [
        {
          "internalType": "uint256",
          "name": "",
          "type": "uint256"
        }
      ],
      "stateMutability": "payable",
      "type": "function"
    },
    {
      "inputs": [],
      "name": "fetchItemsListed",
      "outputs": [
        {
          "components": [
            {
              "internalType": "uint256",
              "name": "tokenId",
              "type": "uint256"
            },
            {
              "internalType": "address payable",
              "name": "seller",
              "type": "address"
            },
            {
              "internalType": "address payable",
              "name": "owner",
              "type": "address"
            },
            {
              "internalType": "uint256",
              "name": "price",
              "type": "uint256"
            },
            {
              "internalType": "bool",
              "name": "sold",
              "type": "bool"
            }
          ],
          "internalType": "struct NFTMarketplace.MarketItem[]",
          "name": "",
          "type": "tuple[]"
        }
      ],
      "stateMutability": "view",
      "type": "function"
    },
    {
      "inputs": [],
      "name": "fetchMarketItems",
      "outputs": [
        {
          "components": [
            {
              "internalType": "uint256",
              "name": "tokenId",
              "type": "uint256"
            },
            {
              "internalType": "address payable",
              "name": "seller",
              "type": "address"
            },
            {
              "internalType": "address payable",
              "name": "owner",
              "type": "address"
            },
            {
              "internalType": "uint256",
              "name": "price",
              "type": "uint256"
            },
            {
              "internalType": "bool",
              "name": "sold",
              "type": "bool"
            }
          ],
          "internalType": "struct NFTMarketplace.MarketItem[]",
          "name": "",
          "type": "tuple[]"
        }
      ],
      "stateMutability": "view",
      "type": "function"
    },
    {
      "inputs": [],
      "name": "fetchMyNFTs",
      "outputs": [
        {
          "components": [
            {
              "internalType": "uint256",
              "name": "tokenId",
              "type": "uint256"
            },
            {
              "internalType": "address payable",
              "name": "seller",
              "type": "address"
            },
            {
              "internalType": "address payable",
              "name": "owner",
              "type": "address"
            },
            {
              "internalType": "uint256",
              "name": "price",
              "type": "uint256"
            },
            {
              "internalType": "bool",
              "name": "sold",
              "type": "bool"
            }
          ],
          "internalType": "struct NFTMarketplace.MarketItem[]",
          "name": "",
          "type": "tuple[]"
        }
      ],
      "stateMutability": "view",
      "type": "function"
    },
    {
      "inputs": [
        {
          "internalType": "uint256",
          "name": "tokenId",
          "type": "uint256"
        }
      ],
      "name": "getApproved",
      "outputs": [
        {
          "internalType": "address",
          "name": "",
          "type": "address"
        }
      ],
      "stateMutability": "view",
      "type": "function"
    },
    {
      "inputs": [
        {
          "internalType": "address",
          "name": "owner",
          "type": "address"
        },
        {
          "internalType": "address",
          "name": "operator",
          "type": "address"
        }
      ],
      "name": "isApprovedForAll",
      "outputs": [
        {
          "internalType": "bool",
          "name": "",
          "type": "bool"
        }
      ],
      "stateMutability": "view",
      "type": "function"
    },
    {
      "inputs": [],
      "name": "name",
      "outputs": [
        {
          "internalType": "string",
          "name": "",
          "type": "string"
        }
      ],
      "stateMutability": "view",
      "type": "function"
    },
    {
      "inputs": [],
      "name": "owner",
      "outputs": [
        {
          "internalType": "address",
          "name": "",
          "type": "address"
        }
      ],
      "stateMutability": "view",
      "type": "function"
    },
    {
      "inputs": [
        {
          "internalType": "uint256",
          "name": "tokenId",
          "type": "uint256"
        }
      ],
      "name": "ownerOf",
      "outputs": [
        {
          "internalType": "address",
          "name": "",
          "type": "address"
        }
      ],
      "stateMutability": "view",
      "type": "function"
    },
    {
      "inputs": [],
      "name": "pause",
      "outputs": [],
      "stateMutability": "nonpayable",
      "type": "function"
    },
    {
      "inputs": [],
      "name": "paused",
      "outputs": [
        {
          "internalType": "bool",
          "name": "",
          "type": "bool"
        }
      ],
      "stateMutability": "view",
      "type": "function"
    },
    {
      "inputs": [],
      "name": "renounceOwnership",
      "outputs": [],
      "stateMutability": "nonpayable",
      "type": "function"
    },
    {
      "inputs": [
        {
          "internalType": "uint256",
          "name": "tokenId",
          "type": "uint256"
        },
        {
          "internalType": "uint256",
          "name": "price",
          "type": "uint256"
        }
      ],
      "name": "resellToken",
      "outputs": [],
      "stateMutability": "payable",
      "type": "function"
    },
    {
      "inputs": [
        {
          "internalType": "address",
          "name": "from",
          "type": "address"
        },
        {
          "internalType": "address",
          "name": "to",
          "type": "address"
        },
        {
          "internalType": "uint256",
          "name": "tokenId",
          "type": "uint256"
        }
      ],
      "name": "safeTransferFrom",
      "outputs": [],
      "stateMutability": "nonpayable",
      "type": "function"
    },
    {
      "inputs": [
        {
          "internalType": "address",
          "name": "from",
          "type": "address"
        },
        {
          "internalType": "address",
          "name": "to",
          "type": "address"
        },
        {
          "internalType": "uint256",
          "name": "tokenId",
          "type": "uint256"
        },
        {
          "internalType": "bytes",
          "name": "data",
          "type": "bytes"
        }
      ],
      "name": "safeTransferFrom",
      "outputs": [],
      "stateMutability": "nonpayable",
      "type": "function"
    },
    {
      "inputs": [
        {
          "internalType": "address",
          "name": "operator",
          "type": "address"
        },
        {
          "internalType": "bool",
          "name": "approved",
          "type": "bool"
        }
      ],
      "name": "setApprovalForAll",
      "outputs": [],
      "stateMutability": "nonpayable",
      "type": "function"
    },
    {
      "inputs": [
        {
          "internalType": "bytes4",
          "name": "interfaceId",
          "type": "bytes4"
        }
      ],
      "name": "supportsInterface",
      "outputs": [
        {
          "internalType": "bool",
          "name": "",
          "type": "bool"
        }
      ],
      "stateMutability": "view",
      "type": "function"
    },
    {
      "inputs": [],
      "name": "symbol",
      "outputs": [
        {
          "internalType": "string",
          "name": "",
          "type": "string"
        }
      ],
      "stateMutability": "view",
      "type": "function"
    },
    {
      "inputs": [
        {
          "internalType": "uint256",
          "name": "index",
          "type": "uint256"
        }
      ],
      "name": "tokenByIndex",
      "outputs": [
        {
          "internalType": "uint256",
          "name": "",
          "type": "uint256"
        }
      ],
      "stateMutability": "view",
      "type": "function"
    },
    {
      "inputs": [
        {
          "internalType": "address",
          "name": "owner",
          "type": "address"
        },
        {
          "internalType": "uint256",
          "name": "index",
          "type": "uint256"
        }
      ],
      "name": "tokenOfOwnerByIndex",
      "outputs": [
        {
          "internalType": "uint256",
          "name": "",
          "type": "uint256"
        }
      ],
      "stateMutability": "view",
      "type": "function"
    },
    {
      "inputs": [
        {
          "internalType": "uint256",
          "name": "tokenId",
          "type": "uint256"
        }
      ],
      "name": "tokenURI",
      "outputs": [
        {
          "internalType": "string",
          "name": "",
          "type": "string"
        }
      ],
      "stateMutability": "view",
      "type": "function"
    },
    {
      "inputs": [],
      "name": "totalSupply",
      "outputs": [
        {
          "internalType": "uint256",
          "name": "",
          "type": "uint256"
        }
      ],
      "stateMutability": "view",
      "type": "function"
    },
    {
      "inputs": [
        {
          "internalType": "address",
          "name": "from",
          "type": "address"
        },
        {
          "internalType": "address",
          "name": "to",
          "type": "address"
        },
        {
          "internalType": "uint256",
          "name": "tokenId",
          "type": "uint256"
        }
      ],
      "name": "transferFrom",
      "outputs": [],
      "stateMutability": "nonpayable",
      "type": "function"
    },
    {
      "inputs": [
        {
          "internalType": "address",
          "name": "newOwner",
          "type": "address"
        }
      ],
      "name": "transferOwnership",
      "outputs": [],
      "stateMutability": "nonpayable",
      "type": "function"
    },
    {
      "inputs": [],
      "name": "unpause",
      "outputs": [],
      "stateMutability": "nonpayable",
      "type": "function"
    },
    {
      "inputs": [
        {
          "internalType": "uint256",
          "name": "_listingPrice",
          "type": "uint256"
        }
      ],
      "name": "updateListingPrice",
      "outputs": [],
      "stateMutability": "payable",
      "type": "function"
    }
  ],
  "bytecode": "0x60806040526658d15e17628000600e553480156200001c57600080fd5b506040518060400160405280600d81526020017f43727970746f4b6574204e4654000000000000000000000000000000000000008152506040518060400160405280600581526020017f434b4e46540000000000000000000000000000000000000000000000000000008152508160009080519060200190620000a1929190620001cc565b508060019080519060200190620000ba929190620001cc565b5050506000600b60006101000a81548160ff021916908315150217905550620000f8620000ec620000fe60201b60201c565b6200010660201b60201c565b620002e1565b600033905090565b6000600b60019054906101000a900473ffffffffffffffffffffffffffffffffffffffff16905081600b60016101000a81548173ffffffffffffffffffffffffffffffffffffffff021916908373ffffffffffffffffffffffffffffffffffffffff1602179055508173ffffffffffffffffffffffffffffffffffffffff168173ffffffffffffffffffffffffffffffffffffffff167f8be0079c531659141344cd1fd0a4f28419497f9722a3daafe3b4186f6b6457e060405160405180910390a35050565b828054620001da906200027c565b90600052602060002090601f016020900481019282620001fe57600085556200024a565b82601f106200021957805160ff19168380011785556200024a565b828001600101855582156200024a579182015b82811115620002495782518255916020019190600101906200022c565b5b5090506200025991906200025d565b5090565b5b80821115620002785760008160009055506001016200025e565b5090565b600060028204905060018216806200029557607f821691505b60208210811415620002ac57620002ab620002b2565b5b50919050565b7f4e487b7100000000000000000000000000000000000000000000000000000000600052602260045260246000fd5b6151bd80620002f16000396000f3fe6080604052600436106101c25760003560e01c80636352211e116100f7578063a22cb46511610095578063c87b56dd11610064578063c87b56dd14610607578063e219fc7514610644578063e985e9c514610660578063f2fde38b1461069d576101c2565b8063a22cb4651461057d578063ae677aa3146105a6578063b88d4fde146105c2578063be9af536146105eb576101c2565b806372b3b620116100d157806372b3b620146104e05780638456cb59146105105780638da5cb5b1461052757806395d89b4114610552576101c2565b80636352211e1461044f57806370a082311461048c578063715018a6146104c9576101c2565b806323b872dd1161016457806342842e0e1161013e57806342842e0e1461039357806345f8fa80146103bc5780634f6ccce7146103e75780635c975abb14610424576101c2565b806323b872dd146103165780632f745c591461033f5780633f4ba83a1461037c576101c2565b8063095ea7b3116101a0578063095ea7b31461026c5780630f08efe01461029557806318160ddd146102c0578063202e3740146102eb576101c2565b806301ffc9a7146101c757806306fdde0314610204578063081812fc1461022f575b600080fd5b3480156101d357600080fd5b506101ee60048036038101906101e99190613d02565b6106c6565b6040516101fb9190614422565b60405180910390f35b34801561021057600080fd5b506102196106d8565b604051610226919061443d565b60405180910390f35b34801561023b57600080fd5b5061025660048036038101906102519190613da8565b61076a565b6040516102639190614354565b60405180910390f35b34801561027857600080fd5b50610293600480360381019061028e9190613cc6565b6107b0565b005b3480156102a157600080fd5b506102aa6108c8565b6040516102b79190614400565b60405180910390f35b3480156102cc57600080fd5b506102d5610b56565b6040516102e2919061475f565b60405180910390f35b3480156102f757600080fd5b50610300610b63565b60405161030d9190614400565b60405180910390f35b34801561032257600080fd5b5061033d60048036038101906103389190613bc0565b610e73565b005b34801561034b57600080fd5b5061036660048036038101906103619190613cc6565b610ed3565b604051610373919061475f565b60405180910390f35b34801561038857600080fd5b50610391610f78565b005b34801561039f57600080fd5b506103ba60048036038101906103b59190613bc0565b610f8a565b005b3480156103c857600080fd5b506103d1610faa565b6040516103de9190614400565b60405180910390f35b3480156103f357600080fd5b5061040e60048036038101906104099190613da8565b6112ba565b60405161041b919061475f565b60405180910390f35b34801561043057600080fd5b50610439611351565b6040516104469190614422565b60405180910390f35b34801561045b57600080fd5b5061047660048036038101906104719190613da8565b611368565b6040516104839190614354565b60405180910390f35b34801561049857600080fd5b506104b360048036038101906104ae9190613b5b565b6113ef565b6040516104c0919061475f565b60405180910390f35b3480156104d557600080fd5b506104de6114a7565b005b6104fa60048036038101906104f59190613d54565b6114bb565b604051610507919061475f565b60405180910390f35b34801561051c57600080fd5b506105256114fc565b005b34801561053357600080fd5b5061053c61150e565b6040516105499190614354565b60405180910390f35b34801561055e57600080fd5b50610567611538565b604051610574919061443d565b60405180910390f35b34801561058957600080fd5b506105a4600480360381019061059f9190613c8a565b6115ca565b005b6105c060048036038101906105bb9190613da8565b6115e0565b005b3480156105ce57600080fd5b506105e960048036038101906105e49190613c0f565b6115f2565b005b61060560048036038101906106009190613da8565b611654565b005b34801561061357600080fd5b5061062e60048036038101906106299190613da8565b61186b565b60405161063b919061443d565b60405180910390f35b61065e60048036038101906106599190613dd1565b61187d565b005b34801561066c57600080fd5b5061068760048036038101906106829190613b84565b611a72565b6040516106949190614422565b60405180910390f35b3480156106a957600080fd5b506106c460048036038101906106bf9190613b5b565b611b06565b005b60006106d182611b8a565b9050919050565b6060600080546106e7906149cf565b80601f0160208091040260200160405190810160405280929190818152602001828054610713906149cf565b80156107605780601f1061073557610100808354040283529160200191610760565b820191906000526020600020905b81548152906001019060200180831161074357829003601f168201915b5050505050905090565b600061077582611c04565b6004600083815260200190815260200160002060009054906101000a900473ffffffffffffffffffffffffffffffffffffffff169050919050565b60006107bb82611368565b90508073ffffffffffffffffffffffffffffffffffffffff168373ffffffffffffffffffffffffffffffffffffffff16141561082c576040517f08c379a0000000000000000000000000000000000000000000000000000000008152600401610823906146bf565b60405180910390fd5b8073ffffffffffffffffffffffffffffffffffffffff1661084b611c4f565b73ffffffffffffffffffffffffffffffffffffffff16148061087a575061087981610874611c4f565b611a72565b5b6108b9576040517f08c379a00000000000000000000000000000000000000000000000000000000081526004016108b0906146ff565b60405180910390fd5b6108c38383611c57565b505050565b606060006108d6600c611d10565b905060006108e4600d611d10565b826108ef91906148d3565b90506000808267ffffffffffffffff811115610934577f4e487b7100000000000000000000000000000000000000000000000000000000600052604160045260246000fd5b60405190808252806020026020018201604052801561096d57816020015b61095a613922565b8152602001906001900390816109525790505b50905060005b84811015610b4b573073ffffffffffffffffffffffffffffffffffffffff16600f600083815260200190815260200160002060020160009054906101000a900473ffffffffffffffffffffffffffffffffffffffff1673ffffffffffffffffffffffffffffffffffffffff161415610b38576000600f60008381526020019081526020016000209050806040518060a0016040529081600082015481526020016001820160009054906101000a900473ffffffffffffffffffffffffffffffffffffffff1673ffffffffffffffffffffffffffffffffffffffff1673ffffffffffffffffffffffffffffffffffffffff1681526020016002820160009054906101000a900473ffffffffffffffffffffffffffffffffffffffff1673ffffffffffffffffffffffffffffffffffffffff1673ffffffffffffffffffffffffffffffffffffffff168152602001600382015481526020016004820160009054906101000a900460ff161515151581525050838581518110610b1c577f4e487b7100000000000000000000000000000000000000000000000000000000600052603260045260246000fd5b6020026020010181905250600184610b34919061487d565b9350505b8080610b4390614a32565b915050610973565b508094505050505090565b6000600880549050905090565b60606000610b71600c611d10565b905060008060005b83811015610c0e573373ffffffffffffffffffffffffffffffffffffffff16600f600083815260200190815260200160002060020160009054906101000a900473ffffffffffffffffffffffffffffffffffffffff1673ffffffffffffffffffffffffffffffffffffffff161415610bfb57600183610bf8919061487d565b92505b8080610c0690614a32565b915050610b79565b5060008267ffffffffffffffff811115610c51577f4e487b7100000000000000000000000000000000000000000000000000000000600052604160045260246000fd5b604051908082528060200260200182016040528015610c8a57816020015b610c77613922565b815260200190600190039081610c6f5790505b50905060005b84811015610e68573373ffffffffffffffffffffffffffffffffffffffff16600f600083815260200190815260200160002060020160009054906101000a900473ffffffffffffffffffffffffffffffffffffffff1673ffffffffffffffffffffffffffffffffffffffff161415610e55576000600f60008381526020019081526020016000209050806040518060a0016040529081600082015481526020016001820160009054906101000a900473ffffffffffffffffffffffffffffffffffffffff1673ffffffffffffffffffffffffffffffffffffffff1673ffffffffffffffffffffffffffffffffffffffff1681526020016002820160009054906101000a900473ffffffffffffffffffffffffffffffffffffffff1673ffffffffffffffffffffffffffffffffffffffff1673ffffffffffffffffffffffffffffffffffffffff168152602001600382015481526020016004820160009054906101000a900460ff161515151581525050838581518110610e39577f4e487b7100000000000000000000000000000000000000000000000000000000600052603260045260246000fd5b6020026020010181905250600184610e51919061487d565b9350505b8080610e6090614a32565b915050610c90565b508094505050505090565b610e84610e7e611c4f565b82611d1e565b610ec3576040517f08c379a0000000000000000000000000000000000000000000000000000000008152600401610eba9061447f565b60405180910390fd5b610ece838383611db3565b505050565b6000610ede836113ef565b8210610f1f576040517f08c379a0000000000000000000000000000000000000000000000000000000008152600401610f16906144bf565b60405180910390fd5b600660008473ffffffffffffffffffffffffffffffffffffffff1673ffffffffffffffffffffffffffffffffffffffff168152602001908152602001600020600083815260200190815260200160002054905092915050565b610f806120ad565b610f8861212b565b565b610fa5838383604051806020016040528060008152506115f2565b505050565b60606000610fb8600c611d10565b905060008060005b83811015611055573373ffffffffffffffffffffffffffffffffffffffff16600f600083815260200190815260200160002060010160009054906101000a900473ffffffffffffffffffffffffffffffffffffffff1673ffffffffffffffffffffffffffffffffffffffff1614156110425760018361103f919061487d565b92505b808061104d90614a32565b915050610fc0565b5060008267ffffffffffffffff811115611098577f4e487b7100000000000000000000000000000000000000000000000000000000600052604160045260246000fd5b6040519080825280602002602001820160405280156110d157816020015b6110be613922565b8152602001906001900390816110b65790505b50905060005b848110156112af573373ffffffffffffffffffffffffffffffffffffffff16600f600083815260200190815260200160002060010160009054906101000a900473ffffffffffffffffffffffffffffffffffffffff1673ffffffffffffffffffffffffffffffffffffffff16141561129c576000600f60008381526020019081526020016000209050806040518060a0016040529081600082015481526020016001820160009054906101000a900473ffffffffffffffffffffffffffffffffffffffff1673ffffffffffffffffffffffffffffffffffffffff1673ffffffffffffffffffffffffffffffffffffffff1681526020016002820160009054906101000a900473ffffffffffffffffffffffffffffffffffffffff1673ffffffffffffffffffffffffffffffffffffffff1673ffffffffffffffffffffffffffffffffffffffff168152602001600382015481526020016004820160009054906101000a900460ff161515151581525050838581518110611280577f4e487b7100000000000000000000000000000000000000000000000000000000600052603260045260246000fd5b6020026020010181905250600184611298919061487d565b9350505b80806112a790614a32565b9150506110d7565b508094505050505090565b60006112c4610b56565b8210611305576040517f08c379a00000000000000000000000000000000000000000000000000000000081526004016112fc9061471f565b60405180910390fd5b6008828154811061133f577f4e487b7100000000000000000000000000000000000000000000000000000000600052603260045260246000fd5b90600052602060002001549050919050565b6000600b60009054906101000a900460ff16905090565b6000806113748361218e565b9050600073ffffffffffffffffffffffffffffffffffffffff168173ffffffffffffffffffffffffffffffffffffffff1614156113e6576040517f08c379a00000000000000000000000000000000000000000000000000000000081526004016113dd9061469f565b60405180910390fd5b80915050919050565b60008073ffffffffffffffffffffffffffffffffffffffff168273ffffffffffffffffffffffffffffffffffffffff161415611460576040517f08c379a0000000000000000000000000000000000000000000000000000000008152600401611457906145df565b60405180910390fd5b600360008373ffffffffffffffffffffffffffffffffffffffff1673ffffffffffffffffffffffffffffffffffffffff168152602001908152602001600020549050919050565b6114af6120ad565b6114b960006121cb565b565b6000806114c8600c611d10565b90506114d4600c612291565b6114de33826122a7565b6114e881856122c5565b6114f28184612339565b8091505092915050565b6115046120ad565b61150c61253c565b565b6000600b60019054906101000a900473ffffffffffffffffffffffffffffffffffffffff16905090565b606060018054611547906149cf565b80601f0160208091040260200160405190810160405280929190818152602001828054611573906149cf565b80156115c05780601f10611595576101008083540402835291602001916115c0565b820191906000526020600020905b8154815290600101906020018083116115a357829003601f168201915b5050505050905090565b6115dc6115d5611c4f565b838361259f565b5050565b6115e86120ad565b80600e8190555050565b6116036115fd611c4f565b83611d1e565b611642576040517f08c379a00000000000000000000000000000000000000000000000000000000081526004016116399061447f565b60405180910390fd5b61164e8484848461270c565b50505050565b600f60008281526020019081526020016000206003015434146116ac576040517f08c379a00000000000000000000000000000000000000000000000000000000081526004016116a39061461f565b60405180910390fd5b6116b7303383611db3565b6116bf61150e565b73ffffffffffffffffffffffffffffffffffffffff166108fc600e549081150290604051600060405180830381858888f19350505050158015611706573d6000803e3d6000fd5b50600f600082815260200190815260200160002060010160009054906101000a900473ffffffffffffffffffffffffffffffffffffffff1673ffffffffffffffffffffffffffffffffffffffff166108fc349081150290604051600060405180830381858888f19350505050158015611783573d6000803e3d6000fd5b5033600f600083815260200190815260200160002060020160006101000a81548173ffffffffffffffffffffffffffffffffffffffff021916908373ffffffffffffffffffffffffffffffffffffffff1602179055506001600f600083815260200190815260200160002060040160006101000a81548160ff0219169083151502179055506000600f600083815260200190815260200160002060010160006101000a81548173ffffffffffffffffffffffffffffffffffffffff021916908373ffffffffffffffffffffffffffffffffffffffff160217905550611868600d612291565b50565b606061187682612768565b9050919050565b3373ffffffffffffffffffffffffffffffffffffffff16600f600084815260200190815260200160002060020160009054906101000a900473ffffffffffffffffffffffffffffffffffffffff1673ffffffffffffffffffffffffffffffffffffffff1614611921576040517f08c379a00000000000000000000000000000000000000000000000000000000081526004016119189061449f565b60405180910390fd5b600e543414611965576040517f08c379a000000000000000000000000000000000000000000000000000000000815260040161195c906146df565b60405180910390fd5b611970333084611db3565b6000600f600084815260200190815260200160002060040160006101000a81548160ff02191690831515021790555080600f60008481526020019081526020016000206003018190555033600f600084815260200190815260200160002060010160006101000a81548173ffffffffffffffffffffffffffffffffffffffff021916908373ffffffffffffffffffffffffffffffffffffffff16021790555030600f600084815260200190815260200160002060020160006101000a81548173ffffffffffffffffffffffffffffffffffffffff021916908373ffffffffffffffffffffffffffffffffffffffff160217905550611a6e600d61287b565b5050565b6000600560008473ffffffffffffffffffffffffffffffffffffffff1673ffffffffffffffffffffffffffffffffffffffff16815260200190815260200160002060008373ffffffffffffffffffffffffffffffffffffffff1673ffffffffffffffffffffffffffffffffffffffff16815260200190815260200160002060009054906101000a900460ff16905092915050565b611b0e6120ad565b600073ffffffffffffffffffffffffffffffffffffffff168173ffffffffffffffffffffffffffffffffffffffff161415611b7e576040517f08c379a0000000000000000000000000000000000000000000000000000000008152600401611b759061451f565b60405180910390fd5b611b87816121cb565b50565b60007f780e9d63000000000000000000000000000000000000000000000000000000007bffffffffffffffffffffffffffffffffffffffffffffffffffffffff1916827bffffffffffffffffffffffffffffffffffffffffffffffffffffffff19161480611bfd5750611bfc826128d7565b5b9050919050565b611c0d816129b9565b611c4c576040517f08c379a0000000000000000000000000000000000000000000000000000000008152600401611c439061469f565b60405180910390fd5b50565b600033905090565b816004600083815260200190815260200160002060006101000a81548173ffffffffffffffffffffffffffffffffffffffff021916908373ffffffffffffffffffffffffffffffffffffffff160217905550808273ffffffffffffffffffffffffffffffffffffffff16611cca83611368565b73ffffffffffffffffffffffffffffffffffffffff167f8c5be1e5ebec7d5bd14f71427d1e84f3dd0314c0f7b2291e5b200ac8c7c3b92560405160405180910390a45050565b600081600001549050919050565b600080611d2a83611368565b90508073ffffffffffffffffffffffffffffffffffffffff168473ffffffffffffffffffffffffffffffffffffffff161480611d6c5750611d6b8185611a72565b5b80611daa57508373ffffffffffffffffffffffffffffffffffffffff16611d928461076a565b73ffffffffffffffffffffffffffffffffffffffff16145b91505092915050565b8273ffffffffffffffffffffffffffffffffffffffff16611dd382611368565b73ffffffffffffffffffffffffffffffffffffffff1614611e29576040517f08c379a0000000000000000000000000000000000000000000000000000000008152600401611e209061453f565b60405180910390fd5b600073ffffffffffffffffffffffffffffffffffffffff168273ffffffffffffffffffffffffffffffffffffffff161415611e99576040517f08c379a0000000000000000000000000000000000000000000000000000000008152600401611e909061457f565b60405180910390fd5b611ea683838360016129fa565b8273ffffffffffffffffffffffffffffffffffffffff16611ec682611368565b73ffffffffffffffffffffffffffffffffffffffff1614611f1c576040517f08c379a0000000000000000000000000000000000000000000000000000000008152600401611f139061453f565b60405180910390fd5b6004600082815260200190815260200160002060006101000a81549073ffffffffffffffffffffffffffffffffffffffff02191690556001600360008573ffffffffffffffffffffffffffffffffffffffff1673ffffffffffffffffffffffffffffffffffffffff168152602001908152602001600020600082825403925050819055506001600360008473ffffffffffffffffffffffffffffffffffffffff1673ffffffffffffffffffffffffffffffffffffffff16815260200190815260200160002060008282540192505081905550816002600083815260200190815260200160002060006101000a81548173ffffffffffffffffffffffffffffffffffffffff021916908373ffffffffffffffffffffffffffffffffffffffff160217905550808273ffffffffffffffffffffffffffffffffffffffff168473ffffffffffffffffffffffffffffffffffffffff167fddf252ad1be2c89b69c2b068fc378daa952ba7f163c4a11628f55a4df523b3ef60405160405180910390a46120a88383836001612a14565b505050565b6120b5611c4f565b73ffffffffffffffffffffffffffffffffffffffff166120d361150e565b73ffffffffffffffffffffffffffffffffffffffff1614612129576040517f08c379a00000000000000000000000000000000000000000000000000000000081526004016121209061465f565b60405180910390fd5b565b612133612a1a565b6000600b60006101000a81548160ff0219169083151502179055507f5db9ee0a495bf2e6ff9c91a7834c1ba4fdd244a5e8aa4e537bd38aeae4b073aa612177611c4f565b6040516121849190614354565b60405180910390a1565b60006002600083815260200190815260200160002060009054906101000a900473ffffffffffffffffffffffffffffffffffffffff169050919050565b6000600b60019054906101000a900473ffffffffffffffffffffffffffffffffffffffff16905081600b60016101000a81548173ffffffffffffffffffffffffffffffffffffffff021916908373ffffffffffffffffffffffffffffffffffffffff1602179055508173ffffffffffffffffffffffffffffffffffffffff168173ffffffffffffffffffffffffffffffffffffffff167f8be0079c531659141344cd1fd0a4f28419497f9722a3daafe3b4186f6b6457e060405160405180910390a35050565b6001816000016000828254019250508190555050565b6122c1828260405180602001604052806000815250612a63565b5050565b6122ce826129b9565b61230d576040517f08c379a0000000000000000000000000000000000000000000000000000000008152600401612304906145ff565b60405180910390fd5b80600a6000848152602001908152602001600020908051906020019061233492919061397f565b505050565b6000811161237c576040517f08c379a00000000000000000000000000000000000000000000000000000000081526004016123739061467f565b60405180910390fd5b600e5434146123c0576040517f08c379a00000000000000000000000000000000000000000000000000000000081526004016123b7906146df565b60405180910390fd5b6123cb333084611db3565b6040518060a001604052808381526020013373ffffffffffffffffffffffffffffffffffffffff1681526020013073ffffffffffffffffffffffffffffffffffffffff16815260200182815260200160001515815250600f60008481526020019081526020016000206000820151816000015560208201518160010160006101000a81548173ffffffffffffffffffffffffffffffffffffffff021916908373ffffffffffffffffffffffffffffffffffffffff16021790555060408201518160020160006101000a81548173ffffffffffffffffffffffffffffffffffffffff021916908373ffffffffffffffffffffffffffffffffffffffff1602179055506060820151816003015560808201518160040160006101000a81548160ff021916908315150217905550905050817fb640004f1d14576d0c209e240cad0410e0d8c0c33a09375861fbadae2588a98d3330846000604051612530949392919061436f565b60405180910390a25050565b612544612abe565b6001600b60006101000a81548160ff0219169083151502179055507f62e78cea01bee320cd4e420270b5ea74000d11b0c9f74754ebdbfc544b05a258612588611c4f565b6040516125959190614354565b60405180910390a1565b8173ffffffffffffffffffffffffffffffffffffffff168373ffffffffffffffffffffffffffffffffffffffff16141561260e576040517f08c379a00000000000000000000000000000000000000000000000000000000081526004016126059061459f565b60405180910390fd5b80600560008573ffffffffffffffffffffffffffffffffffffffff1673ffffffffffffffffffffffffffffffffffffffff16815260200190815260200160002060008473ffffffffffffffffffffffffffffffffffffffff1673ffffffffffffffffffffffffffffffffffffffff16815260200190815260200160002060006101000a81548160ff0219169083151502179055508173ffffffffffffffffffffffffffffffffffffffff168373ffffffffffffffffffffffffffffffffffffffff167f17307eab39ab6107e8899845ad3d59bd9653f200f220920489ca2b5937696c31836040516126ff9190614422565b60405180910390a3505050565b612717848484611db3565b61272384848484612b08565b612762576040517f08c379a0000000000000000000000000000000000000000000000000000000008152600401612759906144ff565b60405180910390fd5b50505050565b606061277382611c04565b6000600a60008481526020019081526020016000208054612793906149cf565b80601f01602080910402602001604051908101604052809291908181526020018280546127bf906149cf565b801561280c5780601f106127e15761010080835404028352916020019161280c565b820191906000526020600020905b8154815290600101906020018083116127ef57829003601f168201915b50505050509050600061281d612c9f565b9050600081511415612833578192505050612876565b600082511115612868578082604051602001612850929190614330565b60405160208183030381529060405292505050612876565b61287184612cb6565b925050505b919050565b600081600001549050600081116128c7576040517f08c379a00000000000000000000000000000000000000000000000000000000081526004016128be906144df565b60405180910390fd5b6001810382600001819055505050565b60007f80ac58cd000000000000000000000000000000000000000000000000000000007bffffffffffffffffffffffffffffffffffffffffffffffffffffffff1916827bffffffffffffffffffffffffffffffffffffffffffffffffffffffff191614806129a257507f5b5e139f000000000000000000000000000000000000000000000000000000007bffffffffffffffffffffffffffffffffffffffffffffffffffffffff1916827bffffffffffffffffffffffffffffffffffffffffffffffffffffffff1916145b806129b257506129b182612d1e565b5b9050919050565b60008073ffffffffffffffffffffffffffffffffffffffff166129db8361218e565b73ffffffffffffffffffffffffffffffffffffffff1614159050919050565b612a02612abe565b612a0e84848484612d88565b50505050565b50505050565b612a22611351565b612a61576040517f08c379a0000000000000000000000000000000000000000000000000000000008152600401612a589061445f565b60405180910390fd5b565b612a6d8383612ee8565b612a7a6000848484612b08565b612ab9576040517f08c379a0000000000000000000000000000000000000000000000000000000008152600401612ab0906144ff565b60405180910390fd5b505050565b612ac6611351565b15612b06576040517f08c379a0000000000000000000000000000000000000000000000000000000008152600401612afd906145bf565b60405180910390fd5b565b6000612b298473ffffffffffffffffffffffffffffffffffffffff16613106565b15612c92578373ffffffffffffffffffffffffffffffffffffffff1663150b7a02612b52611c4f565b8786866040518563ffffffff1660e01b8152600401612b7494939291906143b4565b602060405180830381600087803b158015612b8e57600080fd5b505af1925050508015612bbf57506040513d601f19601f82011682018060405250810190612bbc9190613d2b565b60015b612c42573d8060008114612bef576040519150601f19603f3d011682016040523d82523d6000602084013e612bf4565b606091505b50600081511415612c3a576040517f08c379a0000000000000000000000000000000000000000000000000000000008152600401612c31906144ff565b60405180910390fd5b805181602001fd5b63150b7a0260e01b7bffffffffffffffffffffffffffffffffffffffffffffffffffffffff1916817bffffffffffffffffffffffffffffffffffffffffffffffffffffffff191614915050612c97565b600190505b949350505050565b606060405180602001604052806000815250905090565b6060612cc182611c04565b6000612ccb612c9f565b90506000815111612ceb5760405180602001604052806000815250612d16565b80612cf584613129565b604051602001612d06929190614330565b6040516020818303038152906040525b915050919050565b60007f01ffc9a7000000000000000000000000000000000000000000000000000000007bffffffffffffffffffffffffffffffffffffffffffffffffffffffff1916827bffffffffffffffffffffffffffffffffffffffffffffffffffffffff1916149050919050565b612d948484848461324d565b6001811115612dd8576040517f08c379a0000000000000000000000000000000000000000000000000000000008152600401612dcf9061473f565b60405180910390fd5b6000829050600073ffffffffffffffffffffffffffffffffffffffff168573ffffffffffffffffffffffffffffffffffffffff161415612e2057612e1b81613373565b612e5f565b8373ffffffffffffffffffffffffffffffffffffffff168573ffffffffffffffffffffffffffffffffffffffff1614612e5e57612e5d85826133bc565b5b5b600073ffffffffffffffffffffffffffffffffffffffff168473ffffffffffffffffffffffffffffffffffffffff161415612ea257612e9d81613529565b612ee1565b8473ffffffffffffffffffffffffffffffffffffffff168473ffffffffffffffffffffffffffffffffffffffff1614612ee057612edf848261366c565b5b5b5050505050565b600073ffffffffffffffffffffffffffffffffffffffff168273ffffffffffffffffffffffffffffffffffffffff161415612f58576040517f08c379a0000000000000000000000000000000000000000000000000000000008152600401612f4f9061463f565b60405180910390fd5b612f61816129b9565b15612fa1576040517f08c379a0000000000000000000000000000000000000000000000000000000008152600401612f989061455f565b60405180910390fd5b612faf6000838360016129fa565b612fb8816129b9565b15612ff8576040517f08c379a0000000000000000000000000000000000000000000000000000000008152600401612fef9061455f565b60405180910390fd5b6001600360008473ffffffffffffffffffffffffffffffffffffffff1673ffffffffffffffffffffffffffffffffffffffff16815260200190815260200160002060008282540192505081905550816002600083815260200190815260200160002060006101000a81548173ffffffffffffffffffffffffffffffffffffffff021916908373ffffffffffffffffffffffffffffffffffffffff160217905550808273ffffffffffffffffffffffffffffffffffffffff16600073ffffffffffffffffffffffffffffffffffffffff167fddf252ad1be2c89b69c2b068fc378daa952ba7f163c4a11628f55a4df523b3ef60405160405180910390a4613102600083836001612a14565b5050565b6000808273ffffffffffffffffffffffffffffffffffffffff163b119050919050565b606060006001613138846136eb565b01905060008167ffffffffffffffff81111561317d577f4e487b7100000000000000000000000000000000000000000000000000000000600052604160045260246000fd5b6040519080825280601f01601f1916602001820160405280156131af5781602001600182028036833780820191505090505b509050600082602001820190505b600115613242578080600190039150507f3031323334353637383961626364656600000000000000000000000000000000600a86061a8153600a858161322c577f4e487b7100000000000000000000000000000000000000000000000000000000600052601260045260246000fd5b049450600085141561323d57613242565b6131bd565b819350505050919050565b600181111561336d57600073ffffffffffffffffffffffffffffffffffffffff168473ffffffffffffffffffffffffffffffffffffffff16146132e15780600360008673ffffffffffffffffffffffffffffffffffffffff1673ffffffffffffffffffffffffffffffffffffffff16815260200190815260200160002060008282546132d991906148d3565b925050819055505b600073ffffffffffffffffffffffffffffffffffffffff168373ffffffffffffffffffffffffffffffffffffffff161461336c5780600360008573ffffffffffffffffffffffffffffffffffffffff1673ffffffffffffffffffffffffffffffffffffffff1681526020019081526020016000206000828254613364919061487d565b925050819055505b5b50505050565b6008805490506009600083815260200190815260200160002081905550600881908060018154018082558091505060019003906000526020600020016000909190919091505550565b600060016133c9846113ef565b6133d391906148d3565b90506000600760008481526020019081526020016000205490508181146134b8576000600660008673ffffffffffffffffffffffffffffffffffffffff1673ffffffffffffffffffffffffffffffffffffffff168152602001908152602001600020600084815260200190815260200160002054905080600660008773ffffffffffffffffffffffffffffffffffffffff1673ffffffffffffffffffffffffffffffffffffffff168152602001908152602001600020600084815260200190815260200160002081905550816007600083815260200190815260200160002081905550505b6007600084815260200190815260200160002060009055600660008573ffffffffffffffffffffffffffffffffffffffff1673ffffffffffffffffffffffffffffffffffffffff16815260200190815260200160002060008381526020019081526020016000206000905550505050565b6000600160088054905061353d91906148d3565b9050600060096000848152602001908152602001600020549050600060088381548110613593577f4e487b7100000000000000000000000000000000000000000000000000000000600052603260045260246000fd5b9060005260206000200154905080600883815481106135db577f4e487b7100000000000000000000000000000000000000000000000000000000600052603260045260246000fd5b906000526020600020018190555081600960008381526020019081526020016000208190555060096000858152602001908152602001600020600090556008805480613650577f4e487b7100000000000000000000000000000000000000000000000000000000600052603160045260246000fd5b6001900381819060005260206000200160009055905550505050565b6000613677836113ef565b905081600660008573ffffffffffffffffffffffffffffffffffffffff1673ffffffffffffffffffffffffffffffffffffffff168152602001908152602001600020600083815260200190815260200160002081905550806007600084815260200190815260200160002081905550505050565b600080600090507a184f03e93ff9f4daa797ed6e38ed64bf6a1f010000000000000000831061376f577a184f03e93ff9f4daa797ed6e38ed64bf6a1f0100000000000000008381613765577f4e487b7100000000000000000000000000000000000000000000000000000000600052601260045260246000fd5b0492506040810190505b6d04ee2d6d415b85acef810000000083106137d2576d04ee2d6d415b85acef810000000083816137c8577f4e487b7100000000000000000000000000000000000000000000000000000000600052601260045260246000fd5b0492506020810190505b662386f26fc10000831061382757662386f26fc10000838161381d577f4e487b7100000000000000000000000000000000000000000000000000000000600052601260045260246000fd5b0492506010810190505b6305f5e1008310613876576305f5e100838161386c577f4e487b7100000000000000000000000000000000000000000000000000000000600052601260045260246000fd5b0492506008810190505b61271083106138c15761271083816138b7577f4e487b7100000000000000000000000000000000000000000000000000000000600052601260045260246000fd5b0492506004810190505b6064831061390a5760648381613900577f4e487b7100000000000000000000000000000000000000000000000000000000600052601260045260246000fd5b0492506002810190505b600a8310613919576001810190505b80915050919050565b6040518060a0016040528060008152602001600073ffffffffffffffffffffffffffffffffffffffff168152602001600073ffffffffffffffffffffffffffffffffffffffff168152602001600081526020016000151581525090565b82805461398b906149cf565b90600052602060002090601f0160209004810192826139ad57600085556139f4565b82601f106139c657805160ff19168380011785556139f4565b828001600101855582156139f4579182015b828111156139f35782518255916020019190600101906139d8565b5b509050613a019190613a05565b5090565b5b80821115613a1e576000816000905550600101613a06565b5090565b6000613a35613a308461479f565b61477a565b905082815260208101848484011115613a4d57600080fd5b613a5884828561498d565b509392505050565b6000613a73613a6e846147d0565b61477a565b905082815260208101848484011115613a8b57600080fd5b613a9684828561498d565b509392505050565b600081359050613aad8161512b565b92915050565b600081359050613ac281615142565b92915050565b600081359050613ad781615159565b92915050565b600081519050613aec81615159565b92915050565b600082601f830112613b0357600080fd5b8135613b13848260208601613a22565b91505092915050565b600082601f830112613b2d57600080fd5b8135613b3d848260208601613a60565b91505092915050565b600081359050613b5581615170565b92915050565b600060208284031215613b6d57600080fd5b6000613b7b84828501613a9e565b91505092915050565b60008060408385031215613b9757600080fd5b6000613ba585828601613a9e565b9250506020613bb685828601613a9e565b9150509250929050565b600080600060608486031215613bd557600080fd5b6000613be386828701613a9e565b9350506020613bf486828701613a9e565b9250506040613c0586828701613b46565b9150509250925092565b60008060008060808587031215613c2557600080fd5b6000613c3387828801613a9e565b9450506020613c4487828801613a9e565b9350506040613c5587828801613b46565b925050606085013567ffffffffffffffff811115613c7257600080fd5b613c7e87828801613af2565b91505092959194509250565b60008060408385031215613c9d57600080fd5b6000613cab85828601613a9e565b9250506020613cbc85828601613ab3565b9150509250929050565b60008060408385031215613cd957600080fd5b6000613ce785828601613a9e565b9250506020613cf885828601613b46565b9150509250929050565b600060208284031215613d1457600080fd5b6000613d2284828501613ac8565b91505092915050565b600060208284031215613d3d57600080fd5b6000613d4b84828501613add565b91505092915050565b60008060408385031215613d6757600080fd5b600083013567ffffffffffffffff811115613d8157600080fd5b613d8d85828601613b1c565b9250506020613d9e85828601613b46565b9150509250929050565b600060208284031215613dba57600080fd5b6000613dc884828501613b46565b91505092915050565b60008060408385031215613de457600080fd5b6000613df285828601613b46565b9250506020613e0385828601613b46565b9150509250929050565b6000613e1983836142aa565b60a08301905092915050565b613e2e81614919565b82525050565b613e3d81614907565b82525050565b6000613e4e82614811565b613e58818561483f565b9350613e6383614801565b8060005b83811015613e94578151613e7b8882613e0d565b9750613e8683614832565b925050600181019050613e67565b5085935050505092915050565b613eaa8161492b565b82525050565b613eb98161492b565b82525050565b6000613eca8261481c565b613ed48185614850565b9350613ee481856020860161499c565b613eed81614b08565b840191505092915050565b6000613f0382614827565b613f0d8185614861565b9350613f1d81856020860161499c565b613f2681614b08565b840191505092915050565b6000613f3c82614827565b613f468185614872565b9350613f5681856020860161499c565b80840191505092915050565b6000613f6f601483614861565b9150613f7a82614b19565b602082019050919050565b6000613f92602d83614861565b9150613f9d82614b42565b604082019050919050565b6000613fb5602983614861565b9150613fc082614b91565b604082019050919050565b6000613fd8602b83614861565b9150613fe382614be0565b604082019050919050565b6000613ffb601b83614861565b915061400682614c2f565b602082019050919050565b600061401e603283614861565b915061402982614c58565b604082019050919050565b6000614041602683614861565b915061404c82614ca7565b604082019050919050565b6000614064602583614861565b915061406f82614cf6565b604082019050919050565b6000614087601c83614861565b915061409282614d45565b602082019050919050565b60006140aa602483614861565b91506140b582614d6e565b604082019050919050565b60006140cd601983614861565b91506140d882614dbd565b602082019050919050565b60006140f0601083614861565b91506140fb82614de6565b602082019050919050565b6000614113602983614861565b915061411e82614e0f565b604082019050919050565b6000614136602e83614861565b915061414182614e5e565b604082019050919050565b6000614159604083614861565b915061416482614ead565b604082019050919050565b600061417c602083614861565b915061418782614efc565b602082019050919050565b600061419f602083614861565b91506141aa82614f25565b602082019050919050565b60006141c2601883614861565b91506141cd82614f4e565b602082019050919050565b60006141e5601883614861565b91506141f082614f77565b602082019050919050565b6000614208602183614861565b915061421382614fa0565b604082019050919050565b600061422b602483614861565b915061423682614fef565b604082019050919050565b600061424e603d83614861565b91506142598261503e565b604082019050919050565b6000614271602c83614861565b915061427c8261508d565b604082019050919050565b6000614294603583614861565b915061429f826150dc565b604082019050919050565b60a0820160008201516142c06000850182614312565b5060208201516142d36020850182613e25565b5060408201516142e66040850182613e25565b5060608201516142f96060850182614312565b50608082015161430c6080850182613ea1565b50505050565b61431b81614983565b82525050565b61432a81614983565b82525050565b600061433c8285613f31565b91506143488284613f31565b91508190509392505050565b60006020820190506143696000830184613e34565b92915050565b60006080820190506143846000830187613e34565b6143916020830186613e34565b61439e6040830185614321565b6143ab6060830184613eb0565b95945050505050565b60006080820190506143c96000830187613e34565b6143d66020830186613e34565b6143e36040830185614321565b81810360608301526143f58184613ebf565b905095945050505050565b6000602082019050818103600083015261441a8184613e43565b905092915050565b60006020820190506144376000830184613eb0565b92915050565b600060208201905081810360008301526144578184613ef8565b905092915050565b6000602082019050818103600083015261447881613f62565b9050919050565b6000602082019050818103600083015261449881613f85565b9050919050565b600060208201905081810360008301526144b881613fa8565b9050919050565b600060208201905081810360008301526144d881613fcb565b9050919050565b600060208201905081810360008301526144f881613fee565b9050919050565b6000602082019050818103600083015261451881614011565b9050919050565b6000602082019050818103600083015261453881614034565b9050919050565b6000602082019050818103600083015261455881614057565b9050919050565b600060208201905081810360008301526145788161407a565b9050919050565b600060208201905081810360008301526145988161409d565b9050919050565b600060208201905081810360008301526145b8816140c0565b9050919050565b600060208201905081810360008301526145d8816140e3565b9050919050565b600060208201905081810360008301526145f881614106565b9050919050565b6000602082019050818103600083015261461881614129565b9050919050565b600060208201905081810360008301526146388161414c565b9050919050565b600060208201905081810360008301526146588161416f565b9050919050565b6000602082019050818103600083015261467881614192565b9050919050565b60006020820190508181036000830152614698816141b5565b9050919050565b600060208201905081810360008301526146b8816141d8565b9050919050565b600060208201905081810360008301526146d8816141fb565b9050919050565b600060208201905081810360008301526146f88161421e565b9050919050565b6000602082019050818103600083015261471881614241565b9050919050565b6000602082019050818103600083015261473881614264565b9050919050565b6000602082019050818103600083015261475881614287565b9050919050565b60006020820190506147746000830184614321565b92915050565b6000614784614795565b90506147908282614a01565b919050565b6000604051905090565b600067ffffffffffffffff8211156147ba576147b9614ad9565b5b6147c382614b08565b9050602081019050919050565b600067ffffffffffffffff8211156147eb576147ea614ad9565b5b6147f482614b08565b9050602081019050919050565b6000819050602082019050919050565b600081519050919050565b600081519050919050565b600081519050919050565b6000602082019050919050565b600082825260208201905092915050565b600082825260208201905092915050565b600082825260208201905092915050565b600081905092915050565b600061488882614983565b915061489383614983565b9250827fffffffffffffffffffffffffffffffffffffffffffffffffffffffffffffffff038211156148c8576148c7614a7b565b5b828201905092915050565b60006148de82614983565b91506148e983614983565b9250828210156148fc576148fb614a7b565b5b828203905092915050565b600061491282614963565b9050919050565b600061492482614963565b9050919050565b60008115159050919050565b60007fffffffff0000000000000000000000000000000000000000000000000000000082169050919050565b600073ffffffffffffffffffffffffffffffffffffffff82169050919050565b6000819050919050565b82818337600083830152505050565b60005b838110156149ba57808201518184015260208101905061499f565b838111156149c9576000848401525b50505050565b600060028204905060018216806149e757607f821691505b602082108114156149fb576149fa614aaa565b5b50919050565b614a0a82614b08565b810181811067ffffffffffffffff82111715614a2957614a28614ad9565b5b80604052505050565b6000614a3d82614983565b91507fffffffffffffffffffffffffffffffffffffffffffffffffffffffffffffffff821415614a7057614a6f614a7b565b5b600182019050919050565b7f4e487b7100000000000000000000000000000000000000000000000000000000600052601160045260246000fd5b7f4e487b7100000000000000000000000000000000000000000000000000000000600052602260045260246000fd5b7f4e487b7100000000000000000000000000000000000000000000000000000000600052604160045260246000fd5b6000601f19601f8301169050919050565b7f5061757361626c653a206e6f7420706175736564000000000000000000000000600082015250565b7f4552433732313a2063616c6c6572206973206e6f7420746f6b656e206f776e6560008201527f72206f7220617070726f76656400000000000000000000000000000000000000602082015250565b7f4f6e6c79206974656d206f776e65722063616e20706572666f726d207468697360008201527f207065726174696f6e0000000000000000000000000000000000000000000000602082015250565b7f455243373231456e756d657261626c653a206f776e657220696e646578206f7560008201527f74206f6620626f756e6473000000000000000000000000000000000000000000602082015250565b7f436f756e7465723a2064656372656d656e74206f766572666c6f770000000000600082015250565b7f4552433732313a207472616e7366657220746f206e6f6e20455243373231526560008201527f63656976657220696d706c656d656e7465720000000000000000000000000000602082015250565b7f4f776e61626c653a206e6577206f776e657220697320746865207a65726f206160008201527f6464726573730000000000000000000000000000000000000000000000000000602082015250565b7f4552433732313a207472616e736665722066726f6d20696e636f72726563742060008201527f6f776e6572000000000000000000000000000000000000000000000000000000602082015250565b7f4552433732313a20746f6b656e20616c7265616479206d696e74656400000000600082015250565b7f4552433732313a207472616e7366657220746f20746865207a65726f2061646460008201527f7265737300000000000000000000000000000000000000000000000000000000602082015250565b7f4552433732313a20617070726f766520746f2063616c6c657200000000000000600082015250565b7f5061757361626c653a2070617573656400000000000000000000000000000000600082015250565b7f4552433732313a2061646472657373207a65726f206973206e6f74206120766160008201527f6c6964206f776e65720000000000000000000000000000000000000000000000602082015250565b7f45524337323155524953746f726167653a2055524920736574206f66206e6f6e60008201527f6578697374656e7420746f6b656e000000000000000000000000000000000000602082015250565b7f506c65617365207375626d6974207468652061736b696e67207072696365206960008201527f6e206f7264657220746f20636f6d706c65746520746865207075726368617365602082015250565b7f4552433732313a206d696e7420746f20746865207a65726f2061646472657373600082015250565b7f4f776e61626c653a2063616c6c6572206973206e6f7420746865206f776e6572600082015250565b7f5072696365206d757374206265206174206c6561737420310000000000000000600082015250565b7f4552433732313a20696e76616c696420746f6b656e2049440000000000000000600082015250565b7f4552433732313a20617070726f76616c20746f2063757272656e74206f776e6560008201527f7200000000000000000000000000000000000000000000000000000000000000602082015250565b7f5072696365206d75737420626520657175616c20746f206c697374696e67207060008201527f7269636500000000000000000000000000000000000000000000000000000000602082015250565b7f4552433732313a20617070726f76652063616c6c6572206973206e6f7420746f60008201527f6b656e206f776e6572206f7220617070726f76656420666f7220616c6c000000602082015250565b7f455243373231456e756d657261626c653a20676c6f62616c20696e646578206f60008201527f7574206f6620626f756e64730000000000000000000000000000000000000000602082015250565b7f455243373231456e756d657261626c653a20636f6e736563757469766520747260008201527f616e7366657273206e6f7420737570706f727465640000000000000000000000602082015250565b61513481614907565b811461513f57600080fd5b50565b61514b8161492b565b811461515657600080fd5b50565b61516281614937565b811461516d57600080fd5b50565b61517981614983565b811461518457600080fd5b5056fea26469706673582212205b04e27a7e4b994227ea03bc47f086d0b822650a8a433088d7d721c3a141d70a64736f6c63430008040033",
  "linkReferences": {},
  "deployedLinkReferences": {}
}